:020000040800F2
:10000000980A0020890200081332000861280008BD
:10001000113200083B0700081542000800000000EC
:100020000000000000000000000000002B35000868
:10003000F707000800000000153200082D35000801
:10004000A3020008A3020008A3020008A3020008FC
:10005000A3020008A3020008A3020008A3020008EC
:10006000A3020008A3020008A30200083D0700083D
:1000700049070008A3020008A3020008A302000821
:10008000A302000800000000A3020008A302000869
:10009000A3020008A3020008A3020008A3020008AC
:1000A000A3020008B9350008A3020008A302000853
:1000B000A3020008A3020008C5350008A302000837
:1000C000A3020008A3020008A3020008A30200087C
:1000D000A30200083D410008A3020008A302000893
:1000E000A3020008A3020008A3020008A30200085C
:1000F000A3020008A3020008A302000800000000F9
:1001000000000000A302000800000000A302000895
:10011000A302000800000000A3020008A3020008D8
:10012000A3020008A3020008A3020008A30200081B
:10013000A30200080000000000000000A302000865
:10014000A3020008A3020008000000000000000055
:10015000000000000000000000000000000000009F
:10016000000000000000000000000000A3020008E2
:10017000A3020008000000000000000000000000D2
:1001800000000000A30200080000000000000000C2
:10019000000000000000000000000000000000005F
:1001A0000000000000000000A3020008A3020008F5
:1001B000A3020008A3020008A30200080000000038
:1001C00000000000A3020008000000000000000082
:1001D000A3020008A302000800F002F800F044F8AF
:1001E0000AA090E8000C82448344AAF10107DA4592
:1001F00001D100F039F8AFF2090EBAE80F0013F0A0
:10020000010F18BFFB1A43F001031847B455000053
:10021000D4550000103A24BF78C878C1FAD85207E4
:1002200024BF30C830C144BF04680C607047000070
:100230000023002400250026103A28BF78C1FBD8EF
:10024000520728BF30C148BF0B607047642900F0D7
:100250002581632900F02B82002070471FB504F030
:10026000A1F91FBD10B510BD00F02DFA1146FFF722
:10027000F5FF04F069F800F04BFA03B4FFF7F2FF62
:1002800003BC00F053FA00000948804709480047C2
:10029000FEE7FEE7FEE7FEE7FEE7FEE7FEE7FEE736
:1002A000FEE7FEE704480549054A064B7047000093
:1002B000A9350008D901000898040020980A0020F8
:1002C000980600209806002053EA020C00F069808E
:1002D0002DE9F04B4FF00006002B1FBFB3FA83F55A
:1002E00003FA05F424FA05F65E4012BF1643B2FA8B
:1002F00082F502FA05F4C5F120051EBF22FA05FCBD
:1003000044EA0C04203556EA044C4FEA144418BF62
:10031000641C4FF000084FF00009904271EB030C91
:1003200039D3002919BFB1FA81F701FA07F6B0FAFB
:1003300080F700FA07F6C7F120071EBF20FA07FC76
:1003400046EA0C062037B6FBF4FCA7EB0507103F86
:1003500007F01F0BCBF120060CFA0BFB2CFA06F66C
:1003600044BFB3460026202FA4BF5E464FF0000BCB
:100370005BEA060C08BF4FF0010B19EB0B09ABFB56
:10038000027C48EB0608C01B06FB02CC0BFB03CC2F
:1003900071EB0C01C1E70B46024641464846BDE8F9
:1003A000F08B13B54FF000004FF00001AFF3008069
:1003B000BDE81C40704700000FB41CB5074B06AAEF
:1003C0007B4469460090059800F04FF9002069468B
:1003D00000F05EF91CBC5DF814FB0000CD020000CB
:1003E0002DE9F0410E460446002020622046E168D7
:1003F000884730B3252805D0D4E901219047206AE9
:10040000401CF2E7E168204600278847050018D025
:10041000A5F14100192802D820354FF40067324673
:10042000294620462760FFF711FF40B1012804D07C
:10043000F61D26F007060836D8E7361DD6E728460B
:10044000DAE7206ABDE8F08170B50C460546012A5E
:1004500005D02878800600D5EA69002302E0012350
:1004600005E05B1C934202D2E05C0028F9D1A86948
:10047000E618C01AA861286A184428622846AFF313
:10048000008004E0D5E9012114F8010B9047B44243
:10049000F8D32846AFF3008070BD00002DE9F0418D
:1004A0000646002410687529314616A510D0AFF312
:1004B0000080002802DA404213A507E031688A076D
:1004C00001D512A502E0490704D511A5012401E0D8
:1004D000AFF3008000210A2206F1240709E0B0FBF7
:1004E000F2FCB0FBF2F302FB1C00303078541846EB
:1004F000491C0028F3D123462A463046BDE8F04186
:1005000000F054B8000000002D0000002B00000097
:10051000200000004FF000020429C0F0128010F00B
:10052000030C00F01B80CCF1040CBCF1020F18BFCF
:1005300000F8012BA8BF20F8022BA1EB0C0100F062
:100540000DB85FEAC17C24BF00F8012B00F8012B35
:1005500048BF00F8012B70474FF0000200B513466A
:1005600094469646203922BFA0E80C50A0E80C50D3
:10057000B1F12001BFF4F7AF090728BFA0E80C5084
:1005800048BF0CC05DF804EB890028BF40F8042B7D
:1005900008BF704748BF20F8022B11F0804F18BFEA
:1005A00000F8012B70477047704770472DE9F047FE
:1005B0000D4699469246044600F1240801688806D3
:1005C00004D5E06921F01001216000E00120A8427B
:1005D00001DD471B00E00027A1697A1902EB090041
:1005E000081AA0612078C00602D42046AFF300802C
:1005F000002608E0D4E901211AF806009047206A95
:10060000401C761C20624E45F4DB2078C0060AD5DB
:100610002046AFF3008006E0D4E901213020904766
:10062000206A401C2062381EA7F10107F4DC07E0B5
:10063000D4E9012118F805009047206A401C206287
:10064000281EA5F10105F3DC2046AFF300802078D9
:10065000000602D50220BDE8F0870120FBE700007C
:1006600001694A1C02610878704700B58FB0CDE976
:1006700001310021059105497944CDE90310114666
:100680006846FFF7ADFE0FB000BD0000E5FFFFFFBD
:100690000A6802F8010B0A60704710B5436913B18C
:1006A000AFF3008001E0FFF7CFFE012010BD12780C
:1006B00000F124010A7000224A700122EDE711685E
:1006C0004FF0FF32E9E7754600F02CF8AE46050022
:1006D0006946534620F00700854618B020B5FFF75D
:1006E000E1FDBDE820404FF000064FF000074FF05D
:1006F00000084FF0000B21F00701AC46ACE8C00940
:10070000ACE8C009ACE8C009ACE8C0098D46704748
:1007100010B50446AFF300802046BDE81040FFF757
:10072000ACBD000000487047380400200149182083
:10073000ABBEFEE7260002007047FEE7014800F06E
:10074000DEB8000078030020014800F0D8B80000AF
:10075000D80300200D4902688A4201D20C4901E009
:100760000B492031D2B21423083AB2FBF3F2436CA6
:1007700002F01F0223F0030319448164044980310D
:10078000C1640121914001657047000008040240E6
:10079000000802400179074A02EB81024265054ADE
:1007A0004432491E826501F01F0201219140C1655A
:1007B00070470000FC08024030B5D0E91345656081
:1007C000446D14B1D0E91645656090F8444004F0DA
:1007D0001F050124AC40056C6C600468636083688D
:1007E000102B036803D099600068C26030BD9A6026
:1007F0000068C16030BD7047002240F6B83306E0A3
:100800000021491C89B29942FBD3521C92B2824208
:10081000F6D3704772B6FEE710B590F82530002188
:100820000122022B03D00421C163012122E00368CD
:100830001C6824F00E041C60836C1C6824F4807413
:100840001C6003681C6824F001041C6090F84430AC
:10085000046C03F01F0302FA03F36360D0E913345E
:100860005C60436D33B11C6824F480741C60D0E973
:1008700016345C6080F82520002280F82420084689
:1008800010BD70B590F82520002401212346022ACE
:1008900007D00422C26380F8251080F82430012498
:1008A00029E00268156825F00E05156002681568D4
:1008B00025F001051560826C156825F480751560BA
:1008C00090F84420056C02F01F0201FA02F26A60FF
:1008D000D0E913255560426D32B1156825F4807555
:1008E0001560D0E91625556080F8251080F8243071
:1008F000816B01B18847204670BDC06B7047F0B472
:10090000016C0C6801680D6890F8442002F01F0625
:10091000042202FA06F3234211D06B070FD50B68AD
:100920009B0603D40B6823F004030B6090F844107B
:1009300001F01F018A40016C4A60016B1DE0022337
:1009400003FA06F727424FF0000C4FF0010218D0CF
:10095000AF0716D50C68A40605D40C6824F00A0469
:100960000C6080F8252090F8441001F01F018B40A6
:10097000016C4B6080F824C0C16A00291AD0F0BC19
:1009800008470823B340234214D02B0712D50B6825
:1009900023F00E030B6090F84410036C01F01F016C
:1009A00002FA01F15960C26380F8252080F824C062
:1009B000416BE2E7F0BC704770B504000CD02B4AE5
:1009C00021681420914209D2294A0A44B2FBF0F06E
:1009D0008000606427480AE0012070BD234A52422B
:1009E0000A44B2FBF0F080006064204808382064BC
:1009F000022084F825000A6847F6F0708243D4E9A3
:100A000002031843D4E904352B431843A369184360
:100A1000E3691843236A1843104308602046FFF730
:100A200099FEA0680025B0F5804F00D16560A16CEB
:100A300020790860D4E9130141606068401E0328F2
:100A400008D82046FFF7A6FE606D0560D4E91601C0
:100A5000416002E06565A565E565E563012084F810
:100A6000250084F82450002070BD000008040240D6
:100A7000F8FFFDBF0000024070B5044690F8240066
:100A8000002501280CD0012084F8240094F825606A
:100A90000020012E06D084F824000225284670BDCF
:100AA000022070BD022684F82560E0632068066895
:100AB00026F0010606602046FFF77EFE206B002828
:100AC0002068016802D041F00E0106E021F0040127
:100AD00001602068016841F00A010160A06C0168B2
:100AE000C90303D5016841F480710160606D18B1DC
:100AF000016841F4807101602068016841F00101E2
:100B00000160CBE770B5044600F03CF90546601C77
:100B100002D004484068044400F034F9401BA0426D
:100B2000FAD370BD3C0000202DE9F04FDFF8209291
:100B3000002301260324A9F1040B85B00F2709F136
:100B4000040AABF1040EFAE006FA03F52A407CD061
:100B500091F804C00CF0030CBCF1010F02D0BCF101
:100B6000020F26D1D0F808C0CDF800C04FEA430CE0
:100B700004FA0CF8CDF810C0DDF800C02CEA080C1F
:100B8000CDF800C0D1F80C80DDF810C008FA0CF8E0
:100B9000DDF800C048EA0C08C0F80880D0F804C0AE
:100BA0002CEA050C0D79C5F300159D4045EA0C05AE
:100BB00045600D79ED43AD070ED0C5684FEA430897
:100BC00004FA08FC25EA0C05D1F808C00CFA08FC68
:100BD0004CEA050CC0F80CC00D7905F00305022D98
:100BE00016D1DD0800EB850CCDF808C0DCF82080BC
:100BF0005D074FEAD56C07FA0CF528EA05080D6980
:100C000005FA0CF5DDF808C045EA0805CCF82050D7
:100C100005684FEA430CCDF808C004FA0CFC25EA3D
:100C20000C0591F804C00CF00308DDF808C008FAC0
:100C30000CF848EA0508C0F800804D6815F4403FFC
:100C40007CD0444DD5F860C000E077E04CF0010C5A
:100C5000C5F860C02D6E23F0030C05F0010500956A
:100C60003D4D65440295AD684FEA837C4FEA1C78A0
:100C700007FA08FC25EA0C05B0F1904F06D0DFF822
:100C8000DCC0604505D14FF0010C20E04FF0000CB6
:100C90001DE0DFF8CCC0604502D14FF0020C16E039
:100CA000DFF8C0C0604502D14FF0030C0FE0DFF861
:100CB000B8C0604502D14FF0040C08E0DFF8ACC0CA
:100CC000604502D14FF0050C01E04FF0060C0CFA24
:100CD00008FC4CEA050C029DC5F808C0D9F8005084
:100CE000CC46D1F8048095435FEAC82800D5154367
:100CF000CCF80050DAF80050D446D1F8048095437F
:100D00005FEA882800D51543CCF80050DBF8005086
:100D1000DC46D1F8048095435FEA883800D5154356
:100D2000CCF80050DEF80050F446D1F8048095432A
:100D30005FEAC83800D51543CCF800505B1C0A6840
:100D400032FA03F57FF400AF05B0BDE8F08F000084
:100D50000804014000100240000001400004004867
:100D600000080048000C004800100048001400482B
:100D70000069084000D0012070470AB181617047C6
:100D80008162704701488068704700003C00002085
:100D90000248816842681144816070473C0000202D
:100DA00010B50024032000F073F80F2000F008F8BD
:100DB00008B1012401E000F025F8204610BD000034
:100DC00070B50E4E05460024706898B14FF47A71E4
:100DD000B1FBF0F00A490968B1FBF0F000F060FDEA
:100DE00040B9102D06D200222946501E00F030F8DE
:100DF000356000E00124204670BD00003C0000206A
:100E0000480000200A4882B0016E41F001010166ED
:100E1000016E01F001010091816D41F08051816509
:100E2000806D00F08050009002B000F0A1B800008A
:100E300000100240002809DB00F01F020121914050
:100E40004009800000F1E020C0F800117047000068
:100E5000F0B40E4B1B680C46C3F30223C3F1070525
:100E6000042D00D90425191D072901D2002300E013
:100E7000DB1E012606FA05F1491E214099409E40DD
:100E8000761E16403143F0BC03F0C5B90CED00E00E
:100E9000064900F0070208684FF6FF03184040EAD1
:100EA0000220034A10430860704700000CED00E088
:100EB0000000FA052B492C4B0A6832214A432B4982
:100EC00040B1B0F5007F086829D020F4C06040F43C
:100ED00080602CE00868C0F34120022804D051F85B
:100EE000800F20F4807022E0D1F8800020F4807020
:100EF000C1F88000086820F4C06040F40070086009
:100F0000B2FBF3F0401C00E0401E4A69520501D5D7
:100F10000028F9D1486940050AD503207047C0F37D
:100F20004120022806D051F8800F40F480700860FC
:100F300000207047D1F8800040F48070C1F8800034
:100F4000086820F4C06040F400700860B2FBF3F061
:100F5000401C00E0401E4A695205DBD50028F9D14B
:100F6000D8E700004800002040420F000070004019
:100F70000248816841F48041816070470070004000
:100F80002DE9F8430446006800269D4D00035ED518
:100F9000A86D0027C00008D4A86D40F08050A86557
:100FA000A86D012700F080500090DFF85892D9F822
:100FB000001041F48071C9F80010FFF7E3FE80468D
:100FC00006E000BFFFF7DEFEA0EB080002282BD8EA
:100FD000D9F80000C005F5D5D5F8900010F44070A0
:100FE00014D0216C814211D0D5F89000D5F8901022
:100FF00020F4407041F48031C5F89010D5F890107D
:1010000021F48031C5F89010C5F89000C00711D0C8
:10101000FFF7B8FE804641F2883907E0FFF7B2FEDD
:10102000A0EB0801494501D903260BE0D5F8900053
:101030008007F3D5D5F89000216C20F44070084368
:10104000C5F890001FB1A86D20F08050A8652078E9
:10105000C00707D0D5F88800616820F00300084376
:10106000C5F888002078800707D5D5F88800A168E2
:1010700020F00C000843C5F888002078400707D509
:10108000D5F88800E16820F030000843C5F88800F2
:101090002078000707D5D5F88800216920F0C00026
:1010A0000843C5F888002078800607D5D5F8880061
:1010B000616920F440600843C5F888002078400644
:1010C00007D5D5F88800A16920F440500843C5F839
:1010D00088002078000607D5D5F88800E16920F45B
:1010E00040400843C5F888002088C00507D5D5F8DA
:1010F0008800216A20F440300843C5F88800208821
:10110000800507D5D5F88800616A20F4402008439F
:10111000C5F88800208840050FD5D5F88800A16A59
:1011200020F440100843C5F88800A06AB0F5801F7D
:1011300003D1E86840F48010E860208800050FD5EE
:10114000D5F88800E16A20F440000843C5F888001B
:10115000E06AB0F5800F03D1E86840F48010E860E1
:101160002088C0040FD5D5F88800216B20F040708E
:101170000843C5F88800206BB0F1807F03D1E86890
:1011800040F48010E86020884FF0006180040ED5A4
:10119000D5F88800626B20F040601043C5F88800E5
:1011A000606B884203D1E86840F48010E8602088D2
:1011B00040040ED5D5F88800A26B20F040601043A3
:1011C000C5F88800A06B884203D1E86840F480101D
:1011D000E860208800040FD5D5F88800E16B20F086
:1011E00040500843C5F88800E06BB0F1805F03D140
:1011F000E86840F48030E8603046BDE8F8830000DD
:1012000000100240007000402DE9F0470E46050036
:101210004FF0000725D0DFF8AC81D8F8000000F0CF
:101220000F00B0420CD2D8F8001021F00F0131436A
:10123000C8F80010D8F8000000F00F00B04210D13C
:101240002968614CC80741F2883A5AD06868DFF8CB
:101250007C91032808D0022820682DD04005002862
:101260002CDB0120BDE8F08720688001F9D5E0681B
:1012700000F00302E068C0F30310401C032A19D0F9
:10128000534A00BFB2FBF0F0E268C2F306225043BB
:10129000E268C2F34162521C5200B0FBF2F04845D2
:1012A00017D9A06810F0F00F0CD0880711D5A868E6
:1012B00040B10EE0474AE5E78003D0E700F0B6F81A
:1012C000484506D9A06820F0F00040F08000A060FA
:1012D0008027A068696820F003000843A060FFF73A
:1012E00051FD814606E000BFFFF74CFDA0EB090170
:1012F00051453AD8A068696800F00C00B0EB810F46
:10130000F2D12868810714D5400703D5A06840F4BE
:10131000E060A0602878000705D5A06820F4605040
:1013200040F4E060A060A068A96820F0F0000843E5
:1013300004E0802F03D1A06820F0F000A060D8F86E
:101340000010404601F00F01B14216D9016821F0AA
:101350000F0131430160FFF715FD074607E000BFAD
:10136000FFF710FDC11B514501D903207AE7D8F8DA
:10137000000000F00F00B042F2D12878400705D5F8
:10138000A068E96820F4E0600843A06028780007BE
:1013900006D5A068296920F4605040EAC100A06029
:1013A00000F044F8A1680C4AC1F30311515C01F04C
:1013B0001F01C8400949086009480068BDE8F047B6
:1013C000FFF7FEBC002002400010024000B4C4043D
:1013D0000024F40000366E01D645000848000020C5
:1013E0003C0000200548064900688968054AC1F3A9
:1013F0000221515C01F01F01C840704748000020E5
:1014000000100240E6450008054806490068896862
:10141000054AC1F3C221515C01F01F01C840704769
:101420004800002000100240E6450008184910B5A9
:101430008868C0F381021748012A0BD08A68164BCE
:10144000C2F38102022A06D08A68C2F38102032A0B
:1014500003D0002010BD184610BDCA6802F0030476
:10146000CA68C2F30312521C032C02D0B0FBF2F084
:1014700001E0B3FBF2F0CA68C968C2F30622504328
:10148000C1F34161491C4900B0FBF1F010BD0000FF
:10149000001002400024F40000366E012DE9F843EC
:1014A00004007AD02078F84DC00747D0A868E968D2
:1014B00000F00C0001F003010C2802D0082817D01E
:1014C00001E0032914D06068B0F5803F17D0B0F573
:1014D000A02F286817D020F480302860286820F4D6
:1014E000802028606068E0B1FFF74CFC064614E0FD
:1014F0002868800322D560680028D2D01EE02868C2
:1015000040F48030EDE740F480202860F7E700BF2A
:10151000FFF738FC801B642870D828688003F7D553
:101520000CE0FFF72FFC064605E000BFFFF72AFCA2
:10153000801B6428F0D828688003F7D420788007BF
:101540004CD5A868E96800F00C0001F003010C28F4
:1015500002D004280DD001E002290AD0E06800285A
:1015600028682BD040F480702860FFF70BFC0646FB
:1015700019E02868400502D5E068002891D0686825
:10158000217C20F0FE4040EA01606860BF480068AE
:10159000FFF716FC002800D120E072E1FFF7F2FB14
:1015A000801B0228B8D828684005F7D56868217CD8
:1015B00020F0FE4040EA016068600FE020F4807097
:1015C0002860FFF7DFFB064605E000BFFFF7DAFB08
:1015D000801B0228A0D828684005F7D4207800078F
:1015E00029D560690028D5F8940013D040F0010097
:1015F000C5F89400FFF7C6FB064606E090E000BF82
:10160000FFF7C0FB801B022886D8D5F8940080071E
:10161000F6D510E020F00100C5F89400FFF7B2FB0A
:10162000064604E0FFF7AEFB801B022878D8D5F809
:1016300094008007F6D42078400761D5A86D002675
:10164000C00008D4A86D40F08050A865A86D0126A0
:1016500000F0805000908E480168C90511D40168DF
:10166000804641F480710160FFF78CFB074604E07F
:10167000FFF788FBC01B022852D8D8F80000C0052D
:10168000F6D5A068012815D00528D5F8900016D009
:1016900020F00100C5F89000D5F8900020F004007B
:1016A000C5F89000A06841F28838B8B1FFF76AFB2E
:1016B00007460EE0D5F8900040F00100F0E740F05A
:1016C0000400C5F89000F5E7FFF75CFBC11B41453E
:1016D00026D8D5F890008007F6D50CE0FFF752FB2E
:1016E000074604E0FFF74EFBC11B414518D8D5F86B
:1016F00090008007F6D41EB1A86D20F08050A86538
:101700002078800629D5A0690028D5F8980013D044
:1017100040F00100C5F89800FFF734FB064606E0EC
:1017200075E000BFFFF72EFB801B02286FD8D5F8AD
:1017300098008007F6D510E020F00100C5F8980069
:10174000FFF720FB064604E0FFF71CFB801B022886
:101750005DD8D5F898008007F6D4E069F0B3A968A1
:10176000C1F3810103295DD00228286820F0807030
:10177000286003D0FFF706FB04464BE0FFF702FBAF
:10178000064604E0FFF7FEFA801B02283FD82868CF
:101790008001F7D4F4E908016FF00F0202EB0111A8
:1017A0000843218A5204490802EB4151A26841EAE8
:1017B00002210843217D4FF07E42490802EB41613E
:1017C0000843217B40EAC160E968324A114008437E
:1017D000E860286840F08070286000E05EE0E8681B
:1017E00040F08070E860FFF7CDFA044605E000BFE6
:1017F000FFF7C8FA001B022809D828688001F7D52E
:101800004CE000BFFFF7BEFA001B022802D90320FC
:10181000BDE8F88328688001F4D4E8681E490840D0
:10182000E8603BE00128F3D0E868226A00F0030199
:10183000914226D1616A00F0F0020901103991420B
:101840001FD1A26A00F4FE41B1EB022F19D194F826
:101850002C2000F07841B1EBC26F12D1218E00F440
:10186000C00249084905A1F50011914209D194F837
:10187000341000F0C06049084906A1F100718142AE
:101880000CD00120C4E70000001002403C00002002
:10189000007000400C809F01FCFFEEFE0020B7E7C7
:1018A00010B5401EB0F1807F01D3012010BD4FF074
:1018B000E02460610F21601702F0ADFC0020A06100
:1018C00007202061002010BD7047704770477047A7
:1018D00070477047F0B590F83C20012A3AD00125B6
:1018E00080F83C50022280F83D2003685A689C68CA
:1018F000194E1A4FB34201D0BB4204D122F4700CEE
:101900004A6842EA0C02DFF858C002EA0C02D1F839
:1019100000C04CEA020CC3F804C00268B2420DD009
:10192000B2F1804F0AD00F4B9A4207D00E4B9A4229
:1019300004D0BA4202D00D4B9A4204D1896824F0F7
:1019400080031943916080F83D50002180F83C10DD
:101950000846F0BD0220F0BD002C014000340140DB
:101960008FFFFFFD000400400008004000400140E0
:10197000704710B5040003D094F83D0010B107E0A3
:10198000012010BD002084F83C00204600F022F821
:10199000022084F83D00211D206801F019FE01207D
:1019A00084F8480084F83E0084F83F0084F8400042
:1019B00084F8410084F8420084F8430084F844002D
:1019C00084F8450084F8460084F8470084F83D0018
:1019D000002010BD08B5204A0168204891420ED170
:1019E000016E41F400610166006E002200F40060A7
:1019F000009011461920FFF72BFA192027E0B1F1CA
:101A0000804F0BD0164A914210D1816D41F00201F6
:101A10008165806D00F00200009008BD816D41F08D
:101A200001018165806D00F00100F5E70D4A9142EA
:101A3000F3D1816D41F004018165806D002200F0D9
:101A40000400009011461E20FFF702FA1E20BDE898
:101A50000840FFF7EFB90000002C014000100240E1
:101A6000000400400008004090F83D10012901D01A
:101A700001207047022180F83D1000680F4988421C
:101A80000ED0B0F1804F0BD00D49884208D00D49DF
:101A9000884205D00C49884202D00C49884207D1BF
:101AA00081680B4A1140062906D0B1F5803F03D06A
:101AB000016841F00101016000207047002C0140E5
:101AC0000004004000080040003401400040014094
:101AD0000700010090F83D10012901D00120704756
:101AE000022180F83D100168CA6842F00102CA6014
:101AF0000068104988420ED0B0F1804F0BD00E49DB
:101B0000884208D00D49884205D00D49884202D04C
:101B10000C49884207D181680B4A1140062906D03A
:101B2000B1F5803F03D0016841F001010160002060
:101B300070470000002C01400004004000080040F5
:101B400000340140004001400700010001680A6ABA
:101B500041F211131A4207D10A6A9B001A4203D1BB
:101B60000A6822F001020A60012180F83D1000207D
:101B700070470168CA6822F00102CA6001680A6AF7
:101B800041F211131A4207D10A6A9B001A4203D18B
:101B90000A6822F001020A60012180F83D1000204D
:101BA0007047000070B5044690F83C0000250128FD
:101BB00014D0012684F83C60022084F83D0022689D
:101BC0009068364B184020F47F4090600868702879
:101BD0002ED010DC10F00F0F03D021E04FF00200E8
:101BE00070BD4FEA2012072A1AD2DFE802F05252E3
:101BF00052524A3840002A4BC21A984249D009DC56
:101C0000B0F5805F0DD0B0F5005F1CD0B0F1101FB3
:101C100006D13EE0102A3CD0202A3AD0502A38D0B3
:101C2000012584F83D60002084F83C00284670BD02
:101C3000CB68D1E90121206801F035FD2068816879
:101C400041F0770109E0CB68D1E90121206801F07A
:101C50002AFD2068816841F480418160E1E7CA681B
:101C60004968206801F0CAFE5021206806E0CA6871
:101C70004968206801F0D3FE6021206801F01EFD54
:101C8000CFE7CA684968206801F0B8FE40212068A3
:101C9000F4E7226801461046F0E7000088FFCEFF17
:101CA0002000100070472DE9F04104460068C66826
:101CB00005694FF00007A90713D5B10711D5F91E23
:101CC000016101202077206880698007204602D0CA
:101CD000FFF7E8FF04E000F0DDF8204600F09FF990
:101CE0002777680716D5700714D521686FF00400B0
:101CF0000861022020772068806910F4407F204628
:101D000002D0FFF7CFFF04E000F0C4F8204600F057
:101D100086F92777280715D5300713D521686FF086
:101D200008000861042020772068C06980072046E9
:101D300002D0FFF7B7FF04E000F0ACF8204600F057
:101D40006EF92777E80616D5F00614D521686FF0EE
:101D500010000861082020772068C06910F4407FD7
:101D6000204602D0FFF79EFF04E000F093F82046E3
:101D700000F055F92777E80708D0F00706D021686A
:101D80006FF001000861204600F0C8F9280601D470
:101D9000A80408D5300606D521686FF40250086102
:101DA0002046FFF792FDE80508D5300606D52168E4
:101DB0006FF4807008612046FFF786FD680608D53D
:101DC000700606D521686FF040000861204600F0DB
:101DD000D9F9A80608D5B00606D521686FF020000D
:101DE00008612046FFF772FDE80208D5F00206D52B
:101DF00021686FF4801008612046FFF769FDA80292
:101E000008D5B00206D521686FF40010086120469D
:101E1000FFF75DFD680208D5700206D521686FF4F2
:101E2000800008612046FFF754FD28020AD53002E1
:101E300008D521686FF4000008612046BDE8F04134
:101E4000FFF796BDBDE8F08110B586B004461421B9
:101E50006846FEF781FB2068B0F1804F15D10C4831
:101E6000C16C41F00101C164C06C694600F0010021
:101E70000590022000900190002002900390012024
:101E800004904FF09040FEF74FFE06B010BD0000EA
:101E900000100240704770B5044690F83C000026E0
:101EA0000D4601280BD0012084F83C000C2A4AD0B2
:101EB00007DC82B1042A20D0082A06D131E00220B2
:101EC00070BD102A53D0142A63D00126002084F854
:101ED0003C00304670BD206801F0FAFB2068816943
:101EE00041F0080181612068816921F0040181616C
:101EF000206881692A69114311E0206801F036FCED
:101F00002068816941F4006181612068816921F460
:101F100080618161206881692A6941EA02218161C9
:101F2000D4E7206801F06AFC2068C16941F008012B
:101F3000C1612068C16921F00401C1612068C169E3
:101F40002A69114311E0206801F0A0FC2068C169F2
:101F500041F40061C1612068C16921F48061C161FF
:101F60002068C1692A6941EA0221C161AEE720689F
:101F700001F0D4FC2068016D41F008010165206882
:101F8000016D21F0040101652068016D2A6911438A
:101F900011E0206801F0FAFC2068016D41F4006155
:101FA00001652068016D21F4806101652068016D83
:101FB0002A6941EA0221016588E710B5040003D0CF
:101FC00094F83D0010B107E0012010BD002084F816
:101FD0003C00204600F022F8022084F83D00211D3C
:101FE000206801F0F5FA012084F8480084F83E00EA
:101FF00084F83F0084F8400084F8410084F84200EF
:1020000084F8430084F8440084F8450084F84600CE
:1020100084F8470084F83D00002010BD70477047E9
:1020200030B50446022269B1042912D0082917D01C
:102030000C291CD0102921D094F84300012824D069
:10204000012030BD94F83E000128F9D184F83E20EB
:102050001DE094F83F000128F2D184F83F2016E0FB
:1020600094F840000128EBD184F840200FE094F868
:1020700041000128E4D184F8412008E094F84200AE
:102080000128DDD184F8422001E084F843200122B8
:10209000206801F0FBFA194B20681949194A984247
:1020A00009D0884207D0904205D0174DA84202D0EF
:1020B000164DA84203D1456C45F40045456420689F
:1020C00098420CD0B0F1804F09D0114B984206D005
:1020D000104B984203D0884201D0904207D18168CA
:1020E0000D4A1140062906D0B1F5803F03D00168A2
:1020F00041F001010160002030BD0000002C0140D2
:1021000000340140004001400044014000480140CB
:1021100000040040000800400700010070B50546BB
:1021200000681349134C884215D10021012002F0A8
:10213000D1F802F087F9402020704FF0FF31216183
:1021400060706161A0700020C4E9061000F0F6FC28
:102150000948FFF70EFD09492868884206D1012089
:10216000A060BDE870400648FFF703BD70BD0000E9
:10217000002C014004000020B401002000080040B1
:1021800098020020704790F88410012918D001218E
:1021900080F884102421C0F8881001680A680B6850
:1021A00023F001030B6022F0005100224266036815
:1021B00019602021C0F8881080F8842010467047EC
:1021C000022070477047704770B5044690F884004D
:1021D00001281DD0012084F884002420C4F8880040
:1021E00020680568026822F00102026020688268A7
:1021F00022F060620A438260204601F023FC2068DE
:1022000005602020C4F88800002084F8840070BD98
:10221000022070BD70B5044690F8840001281DD0DE
:10222000012084F884002420C4F888002068056810
:10223000026822F0010202602068826822F0604297
:102240000A438260204601F0FDFB206805602020E3
:10225000C4F88800002084F8840070BD022070BD9E
:102260007047704770B50446D0F88800D4F88C6089
:10227000216889684FF01005090618D5212816D164
:102280002068083050E8001F21F0800140E800126B
:10229000002AF5D1E06F38B1FEF7BEFA20B1E06F49
:1022A000FEF72BFB202823D0204601F057FD2068A5
:1022B000806840061AD5222E18D12068083050E8D0
:1022C000001F21F0400140E80012002AF5D1D4F8A7
:1022D000800040B1FEF7A0FA28B1D4F88000FEF7E4
:1022E0000CFB202804D0204601F00EFD002070BD1C
:1022F000C4F89050032070BD704700002DE9F041F4
:1023000003680446D86919689A6840F60F052842A0
:102310004FF000054FF002060AD187067ED501F086
:10232000200702F0805C57EA0C0777D0616F3AE132
:10233000B24FDFF8CCC2174001EA0C0C57EA0C0C84
:102340006CD05FEAC07C0CD05FEAC15C09D54FF06D
:10235000010CC3F820C0D4F8903043F00103C4F856
:102360009030830709D5D30707D023681E62D4F8BD
:10237000903043F00403C4F8903043070AD5D307E4
:1023800008D0266804233362D4F8903043F0020367
:10239000C4F8903003070CD501F020033B4308D06C
:1023A000266808233362D4F8903043F00803C4F859
:1023B000903003050BD54B0109D526684FF4006317
:1023C0003362D4F8903043F02003C4F89030D4F84E
:1023D0009030002B3DD0800609D501F0200002F09E
:1023E0008051084303D0616F09B120468847D4F873
:1023F000900021688968490602D410F0280F2AD07D
:10240000204601F081FC2068806840061ED52068C7
:10241000083050E8001F21F0400100E021E040E8D2
:102420000012002AF3D1D4F8800078B17549816395
:10243000D4F88000FEF725FA00280AD0D4F88000EE
:10244000816B00E02046BDE8F04108472046FFF7D9
:1024500053FFBDE8F0812046FFF74EFFC4F89050CF
:10246000F7E7D4F86CC02027BCF1010F7ED15FEAFA
:10247000C06C7BD55FEAC16C78D5102018622068EB
:102480008068400645D5D4F880100868406800048C
:10249000000CDED0B4F85C208242DAD9A4F85E00E9
:1024A0000868006880062CD4216851E8000F20F4E9
:1024B000807041E80002002AF6D12068083050E818
:1024C000001F21F0010140E80012002AF5D1206828
:1024D000083050E8001F21F0400140E80012002AB7
:1024E000F5D1C4F88C70E566206850E8001F21F033
:1024F000100140E80012002AF6D1D4F88000FEF75F
:102500008BF92667B4F85C00B4F85E10401A81B20B
:1025100030E0B4F85C00B4F85E10401A81B2B4F850
:102520005E00002895D0002993D0226852E8000F61
:1025300020F4907042E80003002BF6D12F4BDB43D0
:102540002068083050E8002F1A4040E8002CBCF109
:10255000000FF5D1C4F88C70E5666567226852E813
:10256000000F20F0100042E8000300E006E0002B1E
:10257000F4D126672046FFF725FE6AE7C60209D593
:10258000560207D54FF4801018622046BDE8F0418E
:10259000FFF767BE03060AD501F0800302F40002CC
:1025A000134304D0A16F00297FF44CAF51E74206DA
:1025B00011D54A060FD52046026852E8001F21F0C7
:1025C000400142E80013002BF6D1C0F888708567FF
:1025D00000F045F93DE7020206D54A0004D5204641
:1025E000BDE8F041FFF73CBEC001C6D50029C4DA02
:1025F0002046BDE8F041FFF7E6BD000001000010F5
:1026000020010004FD3B000810B5040003D0D4F8FD
:10261000880010B107E0012010BD002084F884007C
:10262000204600F027F82420C4F8880020680168BC
:1026300021F001010160A06A10B1204601F024FAE6
:10264000204601F0A3FB0128E6D02068416821F470
:10265000904141602068816821F02A0181602068F2
:10266000016841F0010101602046BDE8104001F021
:102670006FBA0000F0B597B00646142111A8FDF717
:102680006BFF44216846FDF767FF32493068884296
:102690005ED101200024CDE900046846FEF770FCFD
:1026A00008B1FEF7B7F82C48016E41F4804101668D
:1026B000016E01F480411691C16C41F00101C164C9
:1026C000C06C11A900F0010016904FF4C060119089
:1026D0000220CDE912040720CDE914404FF09040CC
:1026E000FEF722FA1E4D1D48802728601820C5E9F4
:1026F0000104C5E903476C61AC61EC6128462C62BA
:10270000FEF75AF908B1FEF785F8C6F88050AE62B8
:10271000134D12486035143028601920686005F1A7
:102720000801102081E891006C61AC61EC612846E1
:102730002C62FEF741F908B1FEF76CF8F56700224C
:1027400011462520AE62FEF783FB2520FEF772FBC3
:1027500017B0F0BD003801400010024008000240F0
:102760007803002030B4D0F88C30202B02D0022027
:1027700030BC7047A9B1A2B10023C3660A4C0368FC
:10278000A3420BD05B681B0208D5046854E8003FE5
:1027900043F0806344E80035002DF6D130BC01F0F1
:1027A0002FBC0120E4E70000008000407047704724
:1027B0002DE9F8430446D0F88800984616460D46A1
:1027C000202802D00220BDE8F883A5B19EB10020E8
:1027D000C4F890002120C4F888001834FEF7D2FA1B
:1027E000A6878146E68754F8100C2027183CB0F5E0
:1027F000805F02D003E00120E5E7206910B12E469A
:10280000002510E000260EE08021204601F04CFC5F
:10281000C0B9DEB116F8010B21688862B4F8560021
:10282000401EA4F85600B4F856004B464FF0000284
:10283000CDF800800028E7D14FF04001204601F09C
:1028400033FC40B1C4F888700320BCE735F8020BB4
:10285000C0F30800E0E7C4F888700020B3E77047D1
:10286000FEE700002DE9F05F00F0D4F80A213022E5
:102870003123322533263427634C4FF0350C4FF08B
:1028800036094FF0370A4FF0380B4FF0390E012858
:1028900023D002284BD0032873D004282ED1002047
:1028A000A060E168491CE160E1782278914272D130
:1028B0002179627891426ED16179A27891426AD190
:1028C000E0600120E06101F0C9FD0121084601F04E
:1028D00001FD4E480068206288E02069401C90FBA2
:1028E000F1F8206101FB18000A2807D2DFE800F0A8
:1028F00005080A0C0E101316191C2270BDE8F09F73
:102900002370FBE72570F9E72670F7E72770F5E7F6
:1029100084F800C0F2E784F80090EFE784F800A0A4
:10292000ECE784F800B0E9E784F800E0E6E76069E6
:10293000401C90FBF1F8606101FB18000A28DDD211
:10294000DFE800F00507090B0D0F1215181C627067
:10295000D4E76370D2E76570D0E76670CEE7677042
:10296000CCE784F801C0C9E784F80190C6E784F891
:1029700001A0C3E784F801B0C0E702E084F801E0F9
:10298000BCE7A069401C90FBF1F8A06101FB1800B6
:102990000A28B3D200E01FE0DFE800F00507090BCA
:1029A0000D0F1215181BA270A8E7A370A6E7A5705B
:1029B000A4E7A670A2E7A770A0E784F802C09DE78D
:1029C00084F802909AE784F802A097E784F802B0AE
:1029D00094E784F802E091E7E061402020704FF036
:1029E000FF31216160706161A070A161E06803281E
:1029F00084DB07496FF0010009680861BDE8F05FFA
:102A00000348FFF767B800000400002038000020EA
:102A10009802002070B5314C002501212046FEF7B8
:102A2000A7F988B90520FEF76DF801212046FEF7C9
:102A30009FF918B90125002000F080F801212046F7
:102A4000FEF796F90028F9D002212046FEF790F90A
:102A500088B90520FEF756F802212046FEF788F9CE
:102A600018B90225002000F069F802212046FEF77F
:102A70007FF90028F9D004212046FEF779F988B9BA
:102A80000520FEF73FF804212046FEF771F918B93A
:102A90000325002000F052F804212046FEF768F9D3
:102AA0000028F9D04FF0904401212046FEF760F94C
:102AB00088B90520FEF726F801212046FEF758F9CF
:102AC00018B90425002000F039F801212046FEF74E
:102AD0004FF90028F9D0284670BD000000040048D6
:102AE00000B585B014216846FDF736FD4FF6FF703E
:102AF000009000200321CDE90201019069460248BF
:102B0000FEF712F805B000BD0008004800B585B01A
:102B100014216846FDF720FD4FF6FF70009001205C
:102B20000190032003900020029069460248FDF7BF
:102B3000FBFF05B000BD00000008004870B5002490
:102B400006462146204600F003F900F045F94FF40F
:102B50009635304600F010F9641CAC42F9D370BDD4
:102B600030B587B014216846FDF7F6FC1E48C16CED
:102B700041F00401C164C16C01F004010591C16C14
:102B800041F00101C164C16C01F001010591C16C0A
:102B900041F00201C164C06C012500F00200059003
:102BA0004FF44870CDE9000500240394694602946F
:102BB0000E48FDF7B9FF280203940090CDE90154B7
:102BC0004FF0904469462046FDF7AEFFFFF79EFFA9
:102BD000A06940F48070A06104481830016841F495
:102BE0000871016007B030BD0010024000040048C9
:102BF000203AD2B2034B02EB420203EB021200F086
:102C000019B80000EE450008F0B50E46074600254D
:102C100040F23F1407E021463846FFF7E9FF103C39
:102C20006D1CA4B2761C3278002A01D0142DF2D388
:102C3000F0BD00002DE9F04791468A460026044683
:102C400000F086F8DFF84080012700BF00F0C4F8EC
:102C50005FF0000539F8160007FA05F10842404612
:102C600001D1408800E0008800F086F86D1C102D2E
:102C7000F0D3641CE4B25146204600F069F8761C9B
:102C8000182EE3D3BDE8F0874C00002010B5FFF705
:102C900067FF002000F014F8084CA080A088A0F581
:102CA0000241303906D000F03FFB002000F008F868
:102CB000A08010BD00F0AFFAF7E700004C00002044
:102CC00070B51D490A6842F400720A600A6842F44D
:102CD00080720A60184C103C226842F02002226088
:102CE000164A1060086840F02000086000BF00BF6E
:102CF00000BF206840F020002060206840F4807011
:102D00002060FFF7EDFE4FF09041886A40F480703C
:102D1000886200BF00BF00BF0848001F006885B27E
:102D2000886940F480708861FFF7F0FE206840F405
:102D300000702060284670BD280400481408004830
:102D400001B5BDF800000149488008BD4C000020D5
:102D500010B50C460146202000F06EF82146BDE873
:102D60001040212000F068B801B5BDF8000001490D
:102D7000088008BD4C00002030B5154B1C68154A72
:102D8000116841F400711160124910390D6845F461
:102D900080750D600D6845F020050D6018601068A5
:102DA00040F02000106000BF00BF00BF086840F086
:102DB00020000860086840F48070086000BF00BF11
:102DC00000BF086840F4007008601C6030BD00005F
:102DD0001408004828040048154A10B5136815491E
:102DE000086840F400700860086840F4807008606B
:102DF00010481038046844F0200404602224146051
:102E00000C6844F020040C6000BF00BF00BF0168E4
:102E100041F020010160016841F48071016000BF50
:102E200000BF00BF016841F400710160136010BD74
:102E3000140800482804004870B5194C2568194B3F
:102E40001A6842F400721A601A6842F480721A60BA
:102E5000144A103A166846F020061660206018687A
:102E600040F02000186000BF00BF00BF106840F0B5
:102E700020001060106840F48070106021601868B5
:102E800040F02000186000BF00BF00BF106840F095
:102E900020001060106840F480701060256070BDE4
:102EA0001408004828040048114808B5816C41F016
:102EB00004018164816C01F004010091816C41F096
:102EC00001018164806C002200F001000090114635
:102ED0000B20FDF7BDFF0B20FDF7ACFF00221146D4
:102EE0000C20FDF7B5FFBDE808400C20FDF7A2BFA0
:102EF00000100240F0B587B014216846FDF72CFBA6
:102F00002D48C16C41F00401C164C16C01F00401A1
:102F10000591C16C41F02001C164C16C01F0200138
:102F20000591C16C41F00101C164C16C01F0010166
:102F30000591C16C41F00201C164C16C01F0020154
:102F40000591C16C41F00801C164C06C1B4E00F0DA
:102F500008004FF47F440590012221463046FDF7DA
:102F60000CFF174F012204213846FDF706FF01250B
:102F7000CDE9004500240294694630460394FDF7EC
:102F8000D3FDCDE9005469464FF090400295FDF71E
:102F9000CBFD07208DE8310069460A48FDF7C4FDE6
:102FA00004200090CDE90154694638460394FDF7AA
:102FB000BBFD07B0F0BD0000001002400008004853
:102FC000000C00480004004810B588B000241948DF
:102FD0000594069403940494009401941449029473
:102FE000016041F63F71C0E901144CF24F31C0E974
:102FF000031444618461FEF7BCFC08B1FDF70AFCD0
:103000004FF48050039003A90A48FEF7CBFD08B1A6
:10301000FDF700FC00940194694606480294FEF70F
:1030200059FC002801D0FDF7F5FB08B010BD0000E9
:10303000002C0140B401002010B58EB0002407948C
:10304000089409940A940B940C941C2168460D94DE
:10305000FDF782FA1E484FF08041016040F21F31B7
:10306000C0E901146321C0E9031480218161FEF7E6
:1030700080FC08B1FDF7CEFB4FF48050079007A904
:103080001348FEF78FFD08B1FDF7C4FB1048FEF7AB
:1030900094FF08B1FDF7BEFB0B940BA90C480D94EF
:1030A000FEF718FC08B1FDF7B5FB60200090322058
:1030B000CDE901040422694605480494FEF7EBFEBD
:1030C00008B1FDF7A7FB0248FEF7BEFE0EB010BD2B
:1030D0000002002010B588B0002417480094019425
:1030E00002940394049405941249069401604F21BC
:1030F000C0E901144FF6FF71C0E903148461FEF7C3
:1031000038FC08B1FDF786FB4FF48050009069460B
:103110000948FEF747FD08B1FDF77CFB049404A9BC
:1031200005480694FEF7D6FB002801D0FDF772FB98
:1031300008B010BD000400404C02002010B588B05B
:103140000024184800940194029403940494059474
:1031500013490694016041F63F71C0E901144CF235
:103160004F31C0E903148461FEF703FC08B1FDF799
:1031700051FB4FF48050009069460A48FEF712FD5B
:1031800008B1FDF747FB049404A906480694FEF72E
:10319000A1FB002801D0FDF73DFB08B010BD0000E9
:1031A0000008004098020020184810B51649016038
:1031B0004FF416514160002181600C22C160C0E9CA
:1031C00004128161C161016241628162FFF71CFAF0
:1031D00008B1FDF71FFB00210C48FFF71BF808B1F1
:1031E000FDF718FB00210948FEF7EEFF08B1FDF7D7
:1031F00011FB0648FEF7C7FF002803D0BDE81040CA
:10320000FDF708BB10BD000000380140E4020020BB
:10321000FEE7FEE7704730B501210020FFF70CFE06
:103220004FF47A70FDF7E8FA00210120FFF704FE61
:1032300041F290711020FFF7FFFD4FF41C51602008
:10324000FFF7FAFD01216120FFF7F6FD022146207C
:10325000FFF7F2FD48F210011320FFF7EDFD48F2F1
:10326000FE011220FFF7E8FD4FF4A0610220FFF7F6
:10327000E3FD41F230010320FFF7DEFD40F20334AD
:1032800021463020FFF7D8FD21463120FFF7D4FD3D
:1032900021463220FFF7D0FDE51E29463320FFF7F7
:1032A000CBFD03213420FFF7C7FD21463520FFF772
:1032B000C3FD14213620FFF7BFFD21463720FFF75D
:1032C000BBFD21463820FFF7B7FD21463920FFF727
:1032D000B3FD29463A20FFF7AFFD03213B20FFF75E
:1032E000ABFD21463C20FFF7A7FD4FF4A0513D2048
:1032F000FFF7A2FD4FF400719220FFF79DFD2146DC
:103300009320FFF799FD40F60D019020FFF794FD03
:1033100041F218010320FFF78FFDBDE8304040F275
:1033200073110720FFF788BD10B543F20801E320B1
:10333000FFF782FD1221E720FFF77EFD41F23121E8
:10334000EF20FFF779FD00210120FFF775FD4FF415
:10335000E0610220FFF770FD41F230010320FFF72A
:103360006BFD00210420FFF767FD40F207210820D4
:10337000FFF762FD00210920FFF75EFD00210A2012
:10338000FFF75AFD00210C20FFF756FD00210D200C
:10339000FFF752FD00210F20FFF74EFD0021102006
:1033A000FFF74AFD07211120FFF746FD00211220FB
:1033B000FFF742FD00211320FFF73EFDC820FDF777
:1033C000A1FB41F290611020FFF736FD40F227216A
:1033D0001120FFF731FD3220FDF794FB1D21122053
:1033E000FFF72AFD3220FDF78DFB4FF4006113201B
:1033F000FFF722FD14212920FFF71EFD0B212B20B2
:10340000FFF71AFD3220FDF77DFB00212020FFF79A
:1034100013FD00212120FFF70FFD07213020FFF7CA
:103420000BFD40F207713120FFF706FD0621322027
:10343000FFF702FD40F204713520FFF7FDFC41F675
:1034400004713620FFF7F8FC04213720FFF7F4FC65
:1034500000213820FFF7F0FC40F206713920FFF719
:10346000EBFC40F201713C20FFF7E6FC0F213D2010
:10347000FFF7E2FC00215020FFF7DEFCEF21512096
:10348000FFF7DAFC00215220FFF7D6FC40F23F1193
:103490005320FFF7D1FC4FF41C516020FFF7CCFC08
:1034A00001216120FFF7C8FC00216A20FFF7C4FC5E
:1034B00000218020FFF7C0FC00218120FFF7BCFC29
:1034C00000218220FFF7B8FC00218320FFF7B4FC25
:1034D00000218420FFF7B0FC00218520FFF7ACFC21
:1034E00010219020FFF7A8FC00219220FFF7A4FCF8
:1034F00003219320FFF7A0FC4FF488719520FFF77C
:103500009BFC00219720FFF797FC00219820FFF7F4
:1035100093FC41F218010320FFF78EFCBDE8104038
:1035200040F273110720FFF787BC704710B5FDF715
:103530002FFC02480168491C016010BD38000020C2
:1035400010B594B038216846FDF706F814210EA88E
:10355000FDF702F84FF40070FDF7ACFC012000907D
:103560000004019002200324CDE907041421CDE9D1
:103570000A100C900D9009946846FDF78FFF08B172
:1035800072B6FEE70F20CDE90E04002010901190D6
:10359000129002210EA8FDF737FE002801D072B666
:1035A000FEE714B010BD00000248016841F470014C
:1035B0000160704788ED00E00148FEF774BB000031
:1035C000B40100200148FEF76EBB00009802002005
:1035D0002DE9F0430268264B264D274E274C4FF02D
:1035E0008049984207D0484505D0A84203D0B04250
:1035F00001D0A04203D122F070074A683A43204F1D
:10360000DFF880C0DFF8808098420DD048450BD0AD
:10361000A84209D0B04207D0A04205D0B84203D09A
:10362000604501D0404503D122F44075CA682A4361
:103630004D6922F080022A4302608A68C2620A68E9
:103640008262984207D0A04205D0B84203D06045BC
:1036500001D0404501D1096901630121416101693E
:10366000C90703D0016921F001010161BDE8F083C0
:10367000002C0140000400400008004000340140DC
:1036800000400140004401400048014010B501F0F5
:103690001F030121046A99408C430462016A9A4025
:1036A0001143016210BD10B5846842EA032224F47C
:1036B0007F440A432243826010BD00008268034BAE
:1036C0001A400A4342F00701816070478FFFCFFF25
:1036D0002DE9F043056A026A22F0010202624368A2
:1036E00082691C4C25F0020522400C6822F003027E
:1036F00014438A68194E2A43174D194FDFF864C0E6
:10370000DFF86490A84207D0B04205D0B84203D099
:10371000604501D0484506D122F00808CA6842EA4F
:10372000080222F00402A84207D0B04205D0B842F5
:1037300003D0604501D0484505D14D6923F440735D
:103740001D438B692B434360846149684163026276
:10375000BDE8F0838FFFFEFF002C014000340140E4
:10376000004001400044014000480140F0B5056AB6
:10377000026A22F01002026242688369194C1B4EF1
:1037800023400C6823F4407343EA042425F020030B
:103790008D6843EA0513144DA84201D0B04206D10A
:1037A000CF6823F0800343EA071323F04003A842C5
:1037B0000AD0B04208D00E4DA84205D00D4DA84207
:1037C00002D00D4DA84207D14D6922F4406242EA71
:1037D00085028D6942EA850242608461496881639D
:1037E0000362F0BDFF8FFFFE002C0140003401405A
:1037F000004001400044014000480140F0B5056A26
:10380000026A22F4807202624368C269194C1B4E3C
:1038100022400C6822F00302144325F400728D68E4
:1038200042EA0522144DA84201D0B04206D1CF6829
:1038300022F4006242EA072222F48062A8420AD0FF
:10384000B04208D00E4DA84205D00E4DA84202D07D
:103850000D4DA84207D14D6923F4405343EA0513A7
:103860008D6943EA05134360C4614968C16302621C
:10387000F0BD00008FFFFEFF002C0140003401402E
:10388000004001400044014000480140F0B5056A95
:10389000026A22F4805202624268C369194C1B4ECC
:1038A00023400C6823F4407343EA042425F40053B6
:1038B0008D6843EA0533144DA84201D0B04206D1C9
:1038C000CF6823F4004343EA073323F48043A8423C
:1038D0000AD0B04208D00E4DA84205D00D4DA842E6
:1038E00002D00D4DA84207D14D6922F4404242EA70
:1038F00085128D6942EA85124260C461496801649B
:103900000362F0BDFF8FFFFE002C01400034014038
:1039100000400140004401400048014030B5056AC4
:10392000026A22F4803202624268036D114C234025
:103930000C681C4325F400330D8943EA05430E4D02
:10394000A8420BD00D4DA84208D00D4DA84205D07D
:103950000C4DA84202D00C4DA84204D14D6922F46E
:10396000803242EA0522426004654968816403624C
:1039700030BD00008FFFFEFF002C014000340140ED
:1039800000400140004401400048014030B5046A55
:10399000026A22F4801202624268036D114D24F41F
:1039A00000142B400D6843EA05230D8944EA0554B1
:1039B0000D4DA8420BD00D4DA84208D00C4DA84289
:1039C00005D00C4DA84202D00B4DA84204D14D6940
:1039D00022F4802242EA8522426003654968C1647C
:1039E000046230BDFF8FFFFE002C01400034014017
:1039F00000400140004401400048014010B5036A06
:103A0000046A24F001040462846924F0F00444EAA6
:103A1000021423F00A020A438461026210BD10B549
:103A2000036A046A24F010040462846923F0A0038A
:103A300024F4704444EA023243EA011182610162D3
:103A400010BD000030B5416EB9B10268916892684E
:103A5000C1F342610B4B520F9C5CE50003F108047B
:103A6000A25CB5FBF2F2A0F86A205A5C615CD2005D
:103A7000B2FBF1F1A0F8681030BD0121A0F86A1086
:103A8000F8E70000C645000890F82810090706D599
:103A900001684A68836B22F400421A434A6090F836
:103AA0002810C90706D001684A68C36A22F40032A8
:103AB0001A434A6090F82810890706D501684A68B9
:103AC000036B22F480321A434A6090F828104907A9
:103AD00006D501684A68436B22F480221A434A6083
:103AE00090F82810C90606D501688A68C36B22F4CD
:103AF00080521A438A6090F82810890606D501681A
:103B00008A68036C22F400521A438A6090F82810E5
:103B1000490611D501684A68436C22F480121A43A1
:103B20004A60416CB1F5801F06D101684A68836C18
:103B300022F4C0021A434A6090F82810090606D5FC
:103B400001684A68C06C22F4002202434A60704750
:103B50002DE9F84300260446C0F89060FDF712F9FD
:103B60008046206800684FF0200500076FF07E4710
:103B700013D54346002229042046009700F094FA0A
:103B800058B1216851E8000F20F0800041E80002A0
:103B9000002AF6D1C4F8885021E020680068400768
:103BA00022D5434600224FF480012046009700F0C2
:103BB0007BFAC8B1216851E8000F20F4907041E809
:103BC0000002002AF6D12068083050E8001F21F0DA
:103BD000010140E80012002AF5D1C4F88C5084F8A5
:103BE00084600320BDE8F883C4F88850C4F88C5082
:103BF00044F86C6F666026760020F3E710B5806AA3
:103C00000021A0F85E10A0F85610FEF775FB10BD5D
:103C100070B5846AD4F88800D4F88C50216889681B
:103C20004FF00006090606D5212804D1A4F85660F5
:103C3000204600F093F820688068400606D5222DC3
:103C400004D1A4F85E60204600F05EF8D4F890003D
:103C500040F01000C4F890002046FEF74DFB70BD08
:103C600010B50146806A096809684FF000028906AC
:103C70002DD4A0F85E20036853E8001F21F4807162
:103C800043E80014002CF6D10168083151E8003FE8
:103C900023F0010341E80034002CF5D1016808311C
:103CA00051E8003F23F0400341E80034002CF5D1F7
:103CB0002021C0F88C10C16E012908D1016851E89B
:103CC000003F23F0100341E80034002CF6D10267D6
:103CD000C16E012902D0FEF769FD10BDB0F85C107D
:103CE000FEF770FA10BD10B5806A01210167C16E40
:103CF000012902D0FEF75BFD10BDB0F85C10490849
:103D0000FEF760FA10BD000010B5026852E8001F0F
:103D100021F4907142E80013002BF6D10E4B02689B
:103D2000083252E8001F194042E80014002CF6D176
:103D3000C16E012908D1016851E8002F22F010025C
:103D400041E80023002BF6D12021C0F88C1000217F
:103D5000C166416710BD0000FEFFFFEF026852E838
:103D6000001F21F0C00142E80013002BF6D10168CA
:103D7000083151E8002F22F4000241E80023002B13
:103D8000F5D12021C0F88810704700002DE9F041DE
:103D90000446016880682269E3691043626900256E
:103DA0001A431043DFF82CC20A688B4B1A400243B7
:103DB0000A6020684168E26821F440511143416083
:103DC0002168A069614501D0226A10438A68834B4B
:103DD0001A4002438A602068C16A626A21F00F01BA
:103DE0001143C1627E4923687E488B420DD1D0F8D1
:103DF000880010F0030006D0012855D0022842D0D8
:103E000003283FD152E001203DE077498B420BD19E
:103E1000D0F8880010F00C0035D0042833D00828E2
:103E200040D00C282ED141E070498B420BD1D0F804
:103E3000880010F0300026D0102835D0202831D04E
:103E400030281FD132E06A498B420BD1D0F888006C
:103E500010F0C00017D0402826D0802822D0C028DB
:103E600010D123E063450DD1D0F8880010F44060F4
:103E700009D0B0F5806F17D0B0F5006F12D0B0F553
:103E8000406F13D010205B495B4F00264FF4004277
:103E900063453BD160B1022813D004280BD0082819
:103EA00072D10DE00220EEE70420ECE70820EAE7FB
:103EB000FDF798FA01E0FDF7B9FA010001D17CE0C5
:103EC0001146606A37F810206768B1FBF2F007EB23
:103ED0004703834270D8B0EB073F6DD800230846F4
:103EE0001946FCF7F1F9090241EA1061020278086B
:103EF000101871413A460023FCF7E6F93F4AA0F555
:103F00004071914258D82168C86056E0E3694FF685
:103F1000EF7893422CD109284ED2DFE800F0050853
:103F2000114D0D4D4D4D1000FDF75CFA01E0FDF710
:103F30006BFA010004D140E0FDF778FAF9E7114689
:103F4000606A37F81000B1FBF0F04100606801EBE7
:103F50005001B1FBF0F0A0F1100141452CD84FF613
:103F6000F0710140C0F3420001432068C16024E0C9
:103F7000092821D2DFE800F0050912200E202020B8
:103F80001100FDF72FFA02E016E0FDF73DFA0100FF
:103F900004D112E0FDF74AFAF9E71146606A37F8F2
:103FA0001000B1FBF0F1606801EB5001B1FBF0F0E3
:103FB000A0F1100141450AD901250120A4F86A00A9
:103FC00024F8680F2846E6602661BDE8F08180B2DB
:103FD00099E7000000800040F369FFCFFFF4FF1174
:103FE00000380140001002400044004000480040FA
:103FF000004C00400024F400AE450008FFFC0F0018
:1040000070B58165A0F85C2000210446C0F89010CE
:104010002220C4F88C00D4F88000F0B11F4BC3629A
:10402000D4F880301E481863D4F880301D48586397
:10403000D4F8800013468163A56D21682A46243197
:10404000D4F88000FCF718FD38B11020C4F89000B7
:104050002020C4F88C00012070BD206940B1216887
:1040600051E8000F40F4807041E80002002AF6D1C8
:104070002068083050E8001F41F0010140E80012BC
:10408000002AF5D12068083050E8001F41F04001B7
:1040900040E80012002AF5D1002070BD613C000804
:1040A000E73C0008113C00082DE9F0479946174607
:1040B0000D4604464FF00008089E33E0701C31D0D6
:1040C000FCF760FEA0EB0900B04218D8BEB1206832
:1040D0000168490726D5802D24D0402D22D0C16902
:1040E000C94309070DD4082505622046FFF70CFED9
:1040F000C4F8905084F884800120BDE8F087032044
:10410000FBE7C069C04300050CD421684FF4006090
:1041100008622046FFF7F8FD2020C4F8900084F8DC
:104120008480ECE72068C06935EA000004D00020F4
:10413000B842C3D00020E0E70120F9E72DE9F041C3
:104140002848FEF7DBF8DFF89C80D8F80000C0694B
:10415000C043C0063AD44046FEF784F822480068BF
:1041600040684FF47A73C0F16400C2B21F4820491E
:1041700002704046FEF71CFB1D4C1E4D207829782E
:10418000884210D11C4E6078317888420BD11B4F89
:10419000A0783978884206D1E0782D2803D100F044
:1041A0005FF8012814D03223072215A10D48FEF72D
:1041B000FFFA64210E48FCF7ADF964220C49094866
:1041C000FEF7D0FAD8F8000010210162BDE8F081B6
:1041D0002079287060793070A079322338700922F4
:1041E00009A1E3E7E402002078030020000000209A
:1041F00054000020070000200800002009000020D3
:104200006572726F720D0A00537563636573730D87
:104210000A000000FEE70907090E002804DB00F190
:10422000E02080F80014704700F00F0000F1E0205B
:1042300080F8141D7047000010B504460748FDF7CC
:1042400013FC06480021026851620068416AA142DD
:10425000FCD3BDE810400148FDF778BC4C020020BB
:104260000448007830380A2801D300207047012024
:10427000704700005400002010B5144CE06901287C
:104280001CD100F041F91248216A0068401A41F23D
:104290008831884212DD0021012000F01BF800F077
:1042A000D1F8402020704FF0FF31216160706161D2
:1042B000A0700020C4E90610FEF740FCE069002869
:1042C00003D1BDE8104000F0D5B810BD04000020B7
:1042D0003800002010B509281DD2DFE800F01C05C9
:1042E000080B0E1114171A004FF4807313E04FF4EB
:1042F000007310E04FF480630DE04FF400630AE0B8
:104300004FF4805307E04FF4005304E04FF4804330
:1043100001E04FF4004389B1002219460848FCF738
:104320002CFD084C012204212046FCF726FD2046E6
:104330000022BDE810400421FCF71FBD0122ECE77C
:1043400000080048000C0048FCF72AFDFFF7F8F8C9
:10435000FEF7D0FDFEF7A8FDFEF76EFEFEF724FF88
:10436000FEF7B8FEFEF7EAFEFEF72EFEFEF78EFC25
:104370000020FEF7E3FB0020FEF7E2FC4FF6FF70A3
:10438000FEF7F2FC04212A48FDF74AFE0021012035
:10439000FFF7A0FF00210220FFF79CFF0021032070
:1043A000FFF798FF00210420FFF794FF002105206C
:1043B000FFF790FF00210620FFF78CFF0021072068
:1043C000FFF788FF00210820FFF784FF1948FDF759
:1043D00081FB642218491948FEF7C4F917480068A0
:1043E000016841F010010160154C4CF2503500BFDE
:1043F000FEF738FAFFF740FFE0680328F8DBA06813
:104400000028F5D101210220FFF764FF2846FFF7BD
:1044100013FF2846FFF710FF00210220FFF75AFF85
:104420002846FFF709FF2846FFF706FFE0E70000F0
:10443000000200209802002054000020E402002026
:1044400004000020044863210268D162C160006852
:1044500032218163704700000002002004483121AE
:104460000268D162C1600068052181637047000065
:104470000002002010B513A11820FEF7C5FB174C51
:1044800017A11A482278FBF797FF18494820FEF732
:10449000BBFB1648627816A13230FBF78DFF13493B
:1044A00060203231FEF7B0FB1048A27813A16430CF
:1044B000FBF782FF0D49BDE8104064317820FEF71C
:1044C000A3BB000020202020202020505344202087
:1044D0002020202020202020202020000400002058
:1044E0002020202042313A2563000000B80000203F
:1044F0002020202042323A25630000002020202086
:1045000042333A256300000070B516A11820FEF76B
:104510007BFB1A4D2868C06A194C1A49A062401CDE
:1045200091FBF0F218A11B486262FBF745FF1949A5
:104530004820FEF769FB2868806B642120634843AC
:10454000A16A491C90FBF1F2124813A13230E262D9
:10455000FBF732FF0F49BDE8704032316020FEF7B3
:1045600053BB000020202020202020535441202035
:1045700020202020202020202020200000020020B9
:1045800004000020A086010020202020463A256457
:10459000487A00004E01002020202020533A256454
:1045A000252500004FF04070E1EE100A7047010031
:1045B00002000400060008000A000C0010002000A1
:1045C0004000800000010101010307010000080410
:1045D00002040801010100000000000000000102C7
:1045E000030406070809000000000102030400009C
:1045F00000000000000000000000000000000000BB
:1046000000000000000000000000000000000000AA
:10461000000000000000000000000000000000009A
:104620008001800180018001800180018001800182
:104630008001800180018001800100000000800174
:1046400080010000000000000000000000000000E9
:104650000000CC00CC00CC00CC00CC00CC00000092
:10466000000000000000000000000000000000004A
:10467000000000000000000000000000000000003A
:1046800000000000000000000000600C600C600CE6
:1046900030063006FE1FFE1F300638071803FE1FC7
:1046A000FE1F180318038C018C018C010000000010
:1046B0008000E003F80F9C0E8C1C8C188C00980076
:1046C000F801E007800E801C8C188C189C18B80C20
:1046D000F00FE003800080000000000000000000F8
:1046E000000000000E181B0C110C1106110611031E
:1046F00011039B018E01C038C06C6044604430449B
:1047000030441844186C0C38000000000000000011
:10471000E001F0033807180618063003F001F00036
:10472000F8009C310E33061E061C061C063FFC7367
:10473000F021000000000000000000000000000068
:1047400000000C000C000C000C000C000C00000021
:104750000000000000000000000000000000000059
:104760000000000000000000000000000000000049
:10477000000200038001C000C00060006000300043
:104780003000300030003000300030003000600079
:104790006000C000C00080010003000200000000B3
:1047A00020006000C00080018001000300030006BB
:1047B00000060006000600060006000600060003CC
:1047C000000380018001C0006000200000000000A4
:1047D00000000000000000000000C000C000D8067B
:1047E000F807E00130033807000000000000000077
:1047F00000000000000000000000000000000000B9
:104800000000000000000000000080018001800125
:1048100080018001FC3FFC3F80018001800180011C
:104820008001000000000000000000000000000007
:104830000000000000000000000000000000000078
:104840000000000000000000000000000000000068
:1048500080018001000100018000000000000000D4
:104860000000000000000000000000000000000048
:10487000000000000000E007E0070000000000006A
:104880000000000000000000000000000000000028
:104890000000000000000000000000000000000018
:1048A0000000000000000000000000000000000008
:1048B000C000C00000000000000000000000000078
:1048C000000C000C000600060006000300030003B5
:1048D0008003800180018001C000C000C000600032
:1048E0006000000000000000000000000000000068
:1048F000E003F007380E180C0C180C180C180C18E4
:104900000C180C180C180C180C18180C380EF00792
:10491000E0030000000000000000000000000000B4
:1049200000018001C001F00198018801800180012F
:10493000800180018001800180018001800180016F
:1049400080010000000000000000000000000000E6
:10495000E003F80F180C0C180C1800180018000CC5
:10496000000600038001C000600030001800FC1F3A
:10497000FC1F00000000000000000000000000001C
:10498000E001F807180E0C0C0C0C000C0006C0031C
:10499000C007000C001800180C180C18180CF807A9
:1049A000E003000000000000000000000000000024
:1049B000000C000E000F000F800DC00C600C600C8E
:1049C000300C180C0C0CFC3FFC3F000C000C000CD5
:1049D000000C0000000000000000000000000000CB
:1049E000F80FF80F180018000C00EC03FC071C0E61
:1049F000001C0018001800180C181C0C180EF807E2
:104A0000E0030000000000000000000000000000C3
:104A1000C007F00F381C181818000C00CC03EC0F5E
:104A20003C0E1C1C0C180C180C18181C380EF00727
:104A3000E003000000000000000000000000000093
:104A4000FC1FFC1F000C0006000600038003800111
:104A5000C001C000E0006000600070003000300065
:104A60003000000000000000000000000000000016
:104A7000E003F007380E180C180C180C3806F00775
:104A8000F007180C0C180C180C180C18380CF80F30
:104A9000E003000000000000000000000000000033
:104AA000E003F007380E1C0C0C180C180C181C1C1A
:104AB000381EF81BE0190018000C000C1C0EF8073B
:104AC000F0010000000000000000000000000000F5
:104AD00000000000000000000000800180010000D4
:104AE0000000000000000000000000000000800145
:104AF0008001000000000000000000000000000035
:104B000000000000000000000000800180010000A3
:104B10000000000000000000000000000000800114
:104B20008001000100018000000000000000000082
:104B30000000000000000000000000000000001065
:104B4000001C800FE003F8001800F800E003800F5D
:104B5000001C001000000000000000000000000029
:104B60000000000000000000000000000000F81F2E
:104B7000000000000000F81F00000000000000001E
:104B80000000000000000000000000000000000025
:104B9000000000000000000000000000000008000D
:104BA0003800F001C007001F0018001FC007F00107
:104BB00038000800000000000000000000000000B5
:104BC000E003F80F180C0C180C180018000C000665
:104BD00000038001C000C000C00000000000C00051
:104BE000C000000000000000000000000000000005
:104BF0000000E00718180420C229224A1144094481
:104C00000944094409221113E20C02400420181837
:104C1000E0070000000000000000000000000000AD
:104C200080038003C006C006C006600C600C30180C
:104C300030183018F83FF83F1C700C600C6006C04C
:104C400006C000000000000000000000000000009E
:104C5000FC03FC0F0C0C0C180C180C180C0CFC07AB
:104C6000FC0F0C180C300C300C300C300C18FC1FE6
:104C7000FC07000000000000000000000000000031
:104C8000C007F01F38381C300C70066006000600A4
:104C9000060006000600060006600C701C30F01FBF
:104CA000E00700000000000000000000000000001D
:104CB000FE03FE0F060E06180618063006300630F4
:104CC000063006300630063006180618060EFE0FAF
:104CD000FE030000000000000000000000000000D3
:104CE000FC3FFC3F0C000C000C000C000C00FC1FF7
:104CF000FC1F0C000C000C000C000C000C00FC3F16
:104D0000FC3F000000000000000000000000000068
:104D1000F83FF83F18001800180018001800F81F96
:104D2000F81F1800180018001800180018001800C4
:104D3000180000000000000000000000000000005B
:104D4000E00FF83F3C780E6006E007C00300030068
:104D500003FE03FE03C007C006C00EC03CF0F83FD0
:104D6000E00F000000000000000000000000000054
:104D70000C300C300C300C300C300C300C30FC3F54
:104D8000FC3F0C300C300C300C300C300C300C3044
:104D90000C300000000000000000000000000000D7
:104DA00080018001800180018001800180018001FB
:104DB00080018001800180018001800180018001EB
:104DC0008001000000000000000000000000000062
:104DD00000060006000600060006000600060006A3
:104DE0000006000600060006180618063807F0033D
:104DF000E0010000000000000000000000000000D2
:104E000006300618060C060606038601C600660074
:104E10007600DE008E0106030606060C0618063034
:104E2000066000000000000000000000000000001C
:104E300018001800180018001800180018001800B2
:104E40001800180018001800180018001800F81FA3
:104E5000F81F00000000000000000000000000003B
:104E60000EE01EF01EF01EF036D836D836D836D8F2
:104E700066CC66CC66CCC6C6C6C6C6C6C6C686C323
:104E800086C30000000000000000000000000000D9
:104E90000C301C303C303C306C306C30CC30CC3082
:104EA0008C310C330C330C360C360C3C0C3C0C386F
:104EB0000C300000000000000000000000000000B6
:104EC000E007F81F1C380E70066003C003C003C063
:104ED00003C003C003C003C006600E701C38F81F77
:104EE000E0070000000000000000000000000000DB
:104EF000FC0FFC1F0C380C300C300C300C300C1834
:104F0000FC1FFC070C000C000C000C000C000C003B
:104F10000C00000000000000000000000000000085
:104F2000E007F81F1C380E70066003E003C003C0E2
:104F300003C003C003C007E006630E3F1C3CF83FFC
:104F4000E0F700C0000000000000000000000000CA
:104F5000FE0FFE1F06380630063006300638FE1FEC
:104F6000FE0706030606060C06180618063006306D
:104F700006600000000000000000000000000000CB
:104F8000E003F80F1C0C0C180C180C001C00F803A4
:104F9000E00F001E0038063006300E301C1CF80FE3
:104FA000E00700000000000000000000000000001A
:104FB000FE7FFE7F800180018001800180018001F1
:104FC00080018001800180018001800180018001D9
:104FD0008001000000000000000000000000000050
:104FE0000C300C300C300C300C300C300C300C30E1
:104FF0000C300C300C300C300C300C301818F81F02
:10500000E0070000000000000000000000000000B9
:1050100003600630063006300C180C180C18180CFB
:10502000180C380E30063006700760036003C001AC
:10503000C0010000000000000000000000000000AF
:105040000360C361C361C36166336633663366332D
:10505000663366336C1B6C1B6C1B2C1A3C1E380EA3
:10506000380E0000000000000000000000000000FA
:105070000FE00C7018303018700C600EC007800301
:105080008003C003E006700C301C18180C300E6052
:1050900007E0000000000000000000000000000029
:1050A00003C006600C301C383818300C6006E0076E
:1050B000C0038001800180018001800180018001A6
:1050C000800100000000000000000000000000005F
:1050D000FC7FFC7F006000300018000C000600031D
:1050E0008001C0006000300018000C000600FE7F48
:1050F000FE7F000000000000000000000000000033
:10510000E003E00360006000600060006000600099
:10511000600060006000600060006000600060008F
:105120006000600060006000E003E0030000000039
:1051300030003000600060006000C000C000C000AF
:10514000C00180018001800100030003000300060C
:105150000006000000000000000000000000000049
:10516000E003E00300030003000300030003000367
:105170000003000300030003000300030003000317
:105180000003000300030003E003E003000000004D
:105190000000C001C00160036003600330063006F8
:1051A000180C180C000000000000000000000000B7
:1051B00000000000000000000000000000000000EF
:1051C00000000000000000000000000000000000DF
:1051D00000000000000000000000000000000000CF
:1051E000FFFFFFFF000000000000000000000000C3
:1051F0000C000C000C000C000C000C000000000067
:10520000000000000000000000000000000000009E
:10521000000000000000000000000000000000008E
:1052200000000000000000000000F003F8071C0C64
:105230000C0C000FF00FF80C0C0C0C0C1C0FF80FE2
:10524000F018000000000000000000000000000056
:1052500018001800180018001800D803F80F380CB0
:10526000181818181818181818181818380CF80FD3
:10527000D803000000000000000000000000000053
:1052800000000000000000000000C003F007300E26
:10529000180C1800180018001800180C300EF00731
:1052A000C00300000000000000000000000000003B
:1052B00000180018001800180018C01BF01F301C40
:1052C000181818181818181818181818301CF01F63
:1052D000C01B0000000000000000000000000000F3
:1052E00000000000000000000000C003F00F300CC0
:1052F0001818F81FF81F180018003818301CF00F85
:10530000C0070000000000000000000000000000D6
:10531000800FC00FC000C000C000F007F007C00041
:10532000C000C000C000C000C000C000C000C0007D
:10533000C0000000000000000000000000000000AD
:1053400000000000000000000000E00DF80F180E43
:105350000C0C0C0C0C0C0C0C0C0C0C0C180EF80F90
:10536000E00D000C0C0C1C06F807F001000000001A
:1053700018001800180018001800D807F80F381C7B
:10538000181818181818181818181818181818189D
:1053900018180000000000000000000000000000DD
:1053A000C000C000000000000000C000C000C0003D
:1053B000C000C000C000C000C000C000C000C000ED
:1053C000C00000000000000000000000000000001D
:1053D000C000C000000000000000C000C000C0000D
:1053E000C000C000C000C000C000C000C000C000BD
:1053F000C000C000C000C000F8007800000000003D
:105400000C000C000C000C000C000C0C0C060C0327
:105410008C01CC006C00FC009C018C030C030C067E
:105420000C0C000000000000000000000000000064
:10543000C000C000C000C000C000C000C000C0006C
:10544000C000C000C000C000C000C000C000C0005C
:10545000C00000000000000000000000000000008C
:10546000000000000000000000007C3CFF7EC7E35D
:1054700083C183C183C183C183C183C183C183C10C
:1054800083C10000000000000000000000000000D8
:10549000000000000000000000009807F80F381C12
:1054A000181818181818181818181818181818187C
:1054B00018180000000000000000000000000000BC
:1054C00000000000000000000000C003F00F300CDE
:1054D000181818181818181818181818300CF00F71
:1054E000C0030000000000000000000000000000F9
:1054F00000000000000000000000D803F80F380C86
:10550000181818181818181818181818380CF80F30
:10551000D803180018001800180018000000000038
:1055200000000000000000000000C01BF01F301C45
:10553000181818181818181818181818301CF01FF0
:10554000C01B001800180018001800180000000008
:1055500000000000000000000000B007F003700031
:1055600030003000300030003000300030003000BB
:1055700030000000000000000000000000000000FB
:1055800000000000000000000000E003F003380EFF
:10559000180C3800F003C007000C180C380EF00788
:1055A000E003000000000000000000000000000018
:1055B00000008000C000C000C000F007F007C0007D
:1055C000C000C000C000C000C000C000C000C007D4
:1055D0008007000000000000000000000000000044
:1055E000000000000000000000001818181818182B
:1055F000181818181818181818181818381CF01F28
:10560000E0190000000000000000000000000000A1
:10561000000000000000000000000C18180C180C1E
:10562000180C300630063006600360036003C001CA
:10563000C0010000000000000000000000000000A9
:1056400000000000000000000000C141C141C36132
:105650006363636363633636363636361C1C1C1C44
:105660001C1C000000000000000000000000000002
:10567000000000000000000000001C38381C300C46
:10568000600660036003600360036006300C381C32
:105690001C380000000000000000000000000000B6
:1056A0000000000000000000000018303018301822
:1056B0007018600C600CE00CC006C006800380030C
:1056C000800380018001C001F00070000000000034
:1056D00000000000000000000000FC1FFC1F000C88
:1056E000000600038001C000600030001800FC1FAD
:1056F000FC1F00000000000000000000000000008F
:1057000000038001C000C000C000C000C000C00095
:1057100060006000300060004000C000C000C000B9
:10572000C000C000C00080010003000000000000B5
:105730008001800180018001800180018001800161
:105740008001800180018001800180018001800151
:105750008001800180018001800180010000000043
:105760006000C000C00180018001800180018001D3
:105770000003000300060003000180018001800196
:10578000800180018001C000600000000000000076
:105790000000000000000000000000000000F01009
:1057A000F81F080F000000000000000000000000CB
:1057B00000000000000000000000000000000000E9
:1057C000E057000800000020540000001402000808
:1057D0003458000854000020440A00003002000839
:1057E0000000000040404031323300000000000063
:1057F00000000000FFFFFFFFFFFFFFFFFFFFFFFFB5
:105800000000000000000000000000000000000098
:105810000000000000000000000000001000000078
:1058200001000000000000000024F4000000FFFF61
:045830000000000074
:04000005080001D915
:00000001FF
