:020000040800F2
:1000000058080020F1010008B32C00084F26000812
:10001000B12C000847090008693F000800000000F3
:100020000000000000000000000000001130000887
:100030004909000800000000B52C00081330000832
:100040000B0200080B0200080B0200080B0200085C
:100050000B0200080B0200080B0200080B0200084C
:100060000B0200080B0200080B0200080B0200083C
:100070000B0200080B0200080B0200080B0200082C
:100080000B020008000000000B0200080B02000831
:100090000B0200080B0200080B0200080B0200080C
:1000A0000B020008913000080B0200080B02000848
:1000B0000B0200080B0200080B0200080B020008EC
:1000C0000B0200080B0200080B0200080B020008DC
:1000D0000B0200085D3F00080B0200080B0200083D
:1000E0000B0200080B0200080B0200080B020008BC
:1000F0000B0200080B0200080B02000800000000C1
:10010000000000000B020008000000000B020008C5
:100110000B020008000000000B0200080B020008A0
:100120000B0200080B0200080B0200080B0200087B
:100130000B02000800000000000000000B02000895
:100140000B0200080B020008000000000000000085
:10015000000000000000000000000000000000009F
:100160000000000000000000000000000B0200087A
:100170000B0200080000000000000000000000006A
:10018000000000000B02000800000000000000005A
:10019000000000000000000000000000000000005F
:1001A00000000000000000000B0200080B02000825
:1001B0000B0200080B0200080B0200080000000000
:1001C000000000000B02000800000000000000001A
:1001D0000B0200080B020008DFF810D000F040FB13
:1001E00000480047894E0008AFF3008058080020FF
:1001F0000648804706480047FEE7FEE7FEE7FEE7C1
:10020000FEE7FEE7FEE7FEE7FEE7FEE781300008D7
:10021000D90100082DE9F05F0546002092469B4673
:1002200088460646814640241BE02846414647460C
:10023000224600F0BEF953465A46C01A914110D3E7
:1002400011461846224600F0A5F92D1A67EB010861
:100250004F4622460120002100F09CF917EB0009CF
:100260004E41201EA4F10104DFDC484631462A46F7
:100270004346BDE8F09F40EA01039B0703D009E035
:1002800008C9121F08C0042AFAD203E011F8013B82
:1002900000F8013B521EF9D27047D2B201E000F8DB
:1002A000012B491EFBD270470022F6E710B513461A
:1002B0000A4604461946FFF7F0FF204610BD421CCF
:1002C00010F8011B0029FBD1801A704710B50022DD
:1002D00000E0521C835C8C5CA34201D1002BF8D15E
:1002E000D8B2E1B2401A10BD034611F8012B00F854
:1002F000012B002AF9D11846704770B5064603F065
:1003000059FE046805460A220021304600F073F9C0
:100310002C6070BD2DE9FE4F804681EA0300C00FBE
:100320000C46009021F0004123F00045B8EB02009C
:10033000A94105D24046214690461C460B4602463E
:1003400023F00040104347D0270DC7F30A00C3F342
:100350000A510290401A019040286BDAC3F313004F
:1003600040F4801B0098924620B10023D2EB030A90
:1003700063EB0B0B01985946C0F14002504600F068
:1003800009F906460D4650465946019A00F021F9F2
:1003900010EB08006141002487EA115284EAE773F8
:1003A0001A4340D0009A62B3019A012A4FEA0752D9
:1003B00015DC001B61EB02014FF0004202EA07521C
:1003C000CDE90042001C41F5801132462B4600F079
:1003D00059F903B0BDE8F08F40462146F9E7001B0C
:1003E00061EB0201001C41F5801300185B412018ED
:1003F000A2F5001747EB030140EAD570B6196D412D
:1004000011E06D084FEA360645EAC0754FEA07521B
:10041000001B61EB0201001C41F5801149084FEA05
:1004200030000019514132462B4603B0BDE8F04F71
:1004300000F019B90098012240000023D0EB02021D
:1004400063EBE073009821464FEAE074B8EB0000DC
:1004500061EB0401E9E783F000435BE781F00041D1
:1004600058E72DE9FE4F81EA030404F0004421F02F
:10047000004100944FF0000B23F0004350EA0104C8
:100480005ED052EA03045BD0C3F30A54C1F30A55A9
:100490002C44A4F2F3340194A0FB0254C1F31301E1
:1004A00041F48011C3F3130343F4801301FB0244AE
:1004B00000FB034E840A970A44EA815447EA8357B3
:1004C000A4FB076802958D0A05FB07854FEA932C6C
:1004D00004FB0C542705029D4FEA065847EA1637DD
:1004E000B5EB08056EEB070C870E920E47EA8117F5
:1004F00042EA8312A7FB0201B6EB0B0164EB000496
:100500002B0D43EA0C335E1844EB1C50DA4651467F
:10051000E7FB0201C5F313044FEA0B3343EA14531C
:100520004FEA0432019C43EA0603A4F10C0402944E
:10053000009CCDE900B400F0A5F803B0BDE8F08F51
:1005400000200146F9E70EB5C10F80EAE0700844CB
:10055000CA07002140F233438DE80E000A460B46DD
:1005600000F090F803B000BD30B50B460146002006
:100570002022012409E021FA02F59D4205D303FA65
:1005800002F5491B04FA02F52844151EA2F10102E6
:10059000F1DC30BD202A04DB203A00FA02F1002011
:1005A00070479140C2F1200320FA03F319439040B1
:1005B0007047202A04DB203A21FA02F0002170471C
:1005C00021FA02F3D040C2F12002914008431946BB
:1005D0007047202A06DBCB17203A41FA02F043EAA3
:1005E000E07306E041FA02F3D040C2F120029140EC
:1005F0000843194670472DE9F04791460F4680465B
:100600000446002614F8015B2DB100F03BF90068A8
:10061000405DC007F6D12B2D02D02D2D18D0641EC1
:100620004A463946204600F031F927B13968A142DF
:1006300001D1C7F8008071054FF002040BD540428C
:10064000002803DD03F0B6FC0460A007BDE8F087D6
:1006500046F48066E4E70028F8DA03F0ABFC0460B7
:100660006FF00040F2E710B5141E73F1000408DAD1
:10067000401C41F1000192185B411A4301D120F066
:10068000010010BD2DE9F04D92469B4611B1B1FA23
:1006900081F202E0B0FA80F220329046FFF77AFF52
:1006A00004460F4640EA0A0041EA0B0153465A4607
:1006B000084313D0114653EA010019D0C8F1400293
:1006C0005046FFF776FF05460E46504659464246CD
:1006D000FFF760FF084305D0012004E020463946BB
:1006E000BDE8F08D0020054346EAE0762C43374311
:1006F0000A986305E40AA0EB08000022FD0A44EA18
:1007000047540A3002D500200146E9E701051019D7
:100710006941DDE9084500196941BDE8F04DA2E7EE
:100720002DE9F04D81EA030404F0004B21F000456F
:1007300014464FF0000A23F0004150EA050220D091
:1007400054EA01021DD0C5F30A570246C5F313034C
:10075000C1F31300C1F30A5640F4801543F480132B
:10076000A7EB0608101BD64608F2FD3873EB050010
:1007700002D308F1010801E092185B41B8F1000FC3
:1007800003DA00200146BDE8F08D00204FF480110F
:10079000064684460EE0171B73EB050705D3121BB4
:1007A00063EB050306434CEA010C49084FEA3000AD
:1007B00092185B4150EA0107EDD152EA030012D0D2
:1007C00082EA040083EA0501084305D0101BAB410F
:1007D00006D20122002306E000224FF0004302E08F
:1007E0006FF0010253101AEB06004CEB085110EBAE
:1007F0000A0041EB0B01BDE8F04DFFF734BFC1F338
:100800000A52C1F3130140F2FF3341F480119A42BE
:1008100002DA00200146704740F233439A42A2F2C6
:10082000334202DC5242FFF7C4BEFFF7B3BE000002
:1008300030B5041E71F1000404DB4FF00044404267
:1008400064EB0101141E73F1000405DB1C464FF03C
:100850000043524263EB0403994208BF904230BD0B
:10086000064C074D06E0E06840F0010394E80700FD
:1008700098471034AC42F6D3FFF7B2FC406400084E
:1008800060640008004870473C6400082DE9F05F90
:1008900082460078002715468B460AF10104B946C6
:1008A000302801D09DB113E014F8010B01277828FE
:1008B00003D0582801D045B10AE00DB1102D07D161
:1008C0000027102514F8010B02E0082500E00A2596
:1008D0000026B0460EE005FB080005FB06F10127E7
:1008E00001EB10461FFA80F8B6F5803F00D3B946F9
:1008F00014F8010B294600F018F80028EBDABBF1D8
:10090000000F05D00FB1641E00E05446CBF8004044
:10091000B9F1000F06D003F04DFB02210160C81EA3
:10092000BDE8F09F48EA0640FAE73A2800D230389E
:1009300020F02002412A01D3A2F13700884201D3DE
:100940004FF0FF307047FEE77047002240F6B833A3
:1009500006E00021491C89B29942FBD3521C92B295
:100960008242F6D3704772B6FEE710B590F8253094
:1009700000210122022B03D00421C163012122E0C6
:1009800003681C6824F00E041C60836C1C6824F44B
:1009900080741C6003681C6824F001041C6090F8DB
:1009A0004430046C03F01F0302FA03F36360D0E9E0
:1009B00013345C60436D33B11C6824F480741C6094
:1009C000D0E916345C6080F82520002280F82420CD
:1009D000084610BD70B590F825200024012123465B
:1009E000022A07D00422C26380F8251080F8243040
:1009F000012429E00268156825F00E0515600268DB
:100A0000156825F001051560826C156825F4807560
:100A1000156090F84420056C02F01F0201FA02F202
:100A20006A60D0E913255560426D32B1156825F42E
:100A300080751560D0E91625556080F8251080F87E
:100A40002430816B01B18847204670BD70B50446E3
:100A500000F03CF90546601C02D00448406804449C
:100A600000F034F9401BA042FAD370BD54000020BE
:100A70002DE9F04FDFF82092002301260324A9F18D
:100A8000040B85B00F2709F1040AABF1040EFAE05C
:100A900006FA03F52A407CD091F804C00CF0030C50
:100AA000BCF1010F02D0BCF1020F26D1D0F808C072
:100AB000CDF800C04FEA430C04FA0CF8CDF810C092
:100AC000DDF800C02CEA080CCDF800C0D1F80C808D
:100AD000DDF810C008FA0CF8DDF800C048EA0C0890
:100AE000C0F80880D0F804C02CEA050C0D79C5F3D5
:100AF00000159D4045EA0C0545600D79ED43AD07B5
:100B00000ED0C5684FEA430804FA08FC25EA0C0534
:100B1000D1F808C00CFA08FC4CEA050CC0F80CC06F
:100B20000D7905F00305022D16D1DD0800EB850CCB
:100B3000CDF808C0DCF820805D074FEAD56C07FAD5
:100B40000CF528EA05080D6905FA0CF5DDF808C072
:100B500045EA0805CCF8205005684FEA430CCDF86B
:100B600008C004FA0CFC25EA0C0591F804C00CF04E
:100B70000308DDF808C008FA0CF848EA0508C0F8D0
:100B800000804D6815F4403F7CD0444DD5F860C0DE
:100B900000E077E04CF0010CC5F860C02D6E23F04A
:100BA000030C05F0010500953D4D65440295AD68C7
:100BB0004FEA837C4FEA1C7807FA08FC25EA0C050B
:100BC000B0F1904F06D0DFF8DCC0604505D14FF0A2
:100BD000010C20E04FF0000C1DE0DFF8CCC06045B8
:100BE00002D14FF0020C16E0DFF8C0C0604502D120
:100BF0004FF0030C0FE0DFF8B8C0604502D14FF0B2
:100C0000040C08E0DFF8ACC0604502D14FF0050CE1
:100C100001E04FF0060C0CFA08FC4CEA050C029DB2
:100C2000C5F808C0D9F80050CC46D1F804809543E7
:100C30005FEAC82800D51543CCF80050DAF8005018
:100C4000D446D1F8048095435FEA882800D515433F
:100C5000CCF80050DBF80050DC46D1F80480954316
:100C60005FEA883800D51543CCF80050DEF8005014
:100C7000F446D1F8048095435FEAC83800D515439F
:100C8000CCF800505B1C0A6832FA03F57FF400AF21
:100C900005B0BDE8F08F00000804014000100240DC
:100CA000000001400004004800080048000C004813
:100CB00000100048001400480069084000D00120DE
:100CC00070470AB18161704781627047014880684E
:100CD00070470000540000200248816842681144B7
:100CE000816070475400002010B50024032000F0FC
:100CF00073F80F2000F008F808B1012401E000F0BB
:100D000025F8204610BD000070B50E4E05460024A3
:100D1000706898B14FF47A71B1FBF0F00A49096834
:100D2000B1FBF0F000F062FD40B9102D06D20022B8
:100D30002946501E00F030F8356000E001242046BE
:100D400070BD000054000020600000200A4882B0FE
:100D5000016E41F001010166016E01F00101009197
:100D6000816D41F080518165806D00F08050009070
:100D700002B000F0A1B8000000100240002809DB1A
:100D800000F01F02012191404009800000F1E020A5
:100D9000C0F8001170470000F0B40E4B1B680C4601
:100DA000C3F30223C3F10705042D00D90425191D3F
:100DB000072901D2002300E0DB1E012606FA05F117
:100DC000491E214099409E40761E16403143F0BC9A
:100DD00003F0E0B80CED00E0064900F007020868F7
:100DE0004FF6FF03184040EA0220034A1043086010
:100DF000704700000CED00E00000FA052B492C4B79
:100E00000A6832214A432B4940B1B0F5007F086897
:100E100029D020F4C06040F480602CE00868C0F362
:100E20004120022804D051F8800F20F4807022E085
:100E3000D1F8800020F48070C1F88000086820F4A8
:100E4000C06040F400700860B2FBF3F0401C00E0AA
:100E5000401E4A69520501D50028F9D1486940056C
:100E60000AD503207047C0F34120022806D051F86C
:100E7000800F40F48070086000207047D1F8800037
:100E800040F48070C1F88000086820F4C06040F42D
:100E900000700860B2FBF3F0401C00E0401E4A699D
:100EA0005205DBD50028F9D1D8E70000600000200A
:100EB00040420F00007000400248816841F48041C8
:100EC00081607047007000402DE9F84304460068D7
:100ED00000269D4D00035ED5A86D0027C00008D4F4
:100EE000A86D40F08050A865A86D012700F08050E3
:100EF0000090DFF85892D9F8001041F48071C9F8D9
:100F00000010FFF7E3FE804606E000BFFFF7DEFEBD
:100F1000A0EB080002282BD8D9F80000C005F5D5B1
:100F2000D5F8900010F4407014D0216C814211D09B
:100F3000D5F89000D5F8901020F4407041F480313D
:100F4000C5F89010D5F8901021F48031C5F89010B4
:100F5000C5F89000C00711D0FFF7B8FE804641F2F7
:100F6000883907E0FFF7B2FEA0EB0801494501D937
:100F700003260BE0D5F890008007F3D5D5F8900054
:100F8000216C20F440700843C5F890001FB1A86D93
:100F900020F08050A8652078C00707D0D5F88800D9
:100FA000616820F003000843C5F8880020788007B6
:100FB00007D5D5F88800A16820F00C000843C5F8D3
:100FC00088002078400707D5D5F88800E16820F030
:100FD00030000843C5F888002078000707D5D5F809
:100FE0008800216920F0C0000843C5F888002078F7
:100FF000800607D5D5F88800616920F44060084371
:10100000C5F888002078400607D5D5F88800A16982
:1010100020F440500843C5F888002078000607D522
:10102000D5F88800E16920F440400843C5F88800FD
:101030002088C00507D5D5F88800216A20F4403003
:101040000843C5F888002088800507D5D5F88800B2
:10105000616A20F440200843C5F8880020884005D4
:101060000FD5D5F88800A16A20F440100843C5F8D0
:101070008800A06AB0F5801F03D1E86840F48010B2
:10108000E860208800050FD5D5F88800E16A20F4D3
:1010900040000843C5F88800E06AB0F5800F03D12E
:1010A000E86840F48010E8602088C0040FD5D5F8C7
:1010B0008800216B20F040700843C5F88800206B41
:1010C000B0F1807F03D1E86840F48010E8602088A8
:1010D0004FF0006180040ED5D5F88800626B20F0D7
:1010E00040601043C5F88800606B884203D1E8680F
:1010F00040F48010E860208840040ED5D5F88800C0
:10110000A26B20F040601043C5F88800A06B8842B5
:1011100003D1E86840F48010E860208800040FD50F
:10112000D5F88800E16B20F040500843C5F88800EE
:10113000E06BB0F1805F03D1E86840F48030E86094
:101140003046BDE8F8830000001002400070004007
:101150002DE9F0470E4605004FF0000725D0DFF8D7
:10116000AC81D8F8000000F00F00B0420CD2D8F8E3
:10117000001021F00F013143C8F80010D8F800002A
:1011800000F00F00B04210D12968614CC80741F24D
:10119000883A5AD06868DFF87C91032808D0022882
:1011A00020682DD0400500282CDB0120BDE8F08709
:1011B00020688001F9D5E06800F00302E068C0F320
:1011C0000310401C032A19D0534A00BFB2FBF0F0B1
:1011D000E268C2F306225043E268C2F34162521C45
:1011E0005200B0FBF2F0484517D9A06810F0F00F9C
:1011F0000CD0880711D5A86840B10EE0474AE5E752
:101200008003D0E700F0B6F8484506D9A06820F082
:10121000F00040F08000A0608027A068696820F09E
:1012200003000843A060FFF751FD814606E000BFC0
:10123000FFF74CFDA0EB090151453AD8A068696859
:1012400000F00C00B0EB810FF2D12868810714D5B3
:10125000400703D5A06840F4E060A060287800074C
:1012600005D5A06820F4605040F4E060A060A0685C
:10127000A96820F0F000084304E0802F03D1A068A3
:1012800020F0F000A060D8F80010404601F00F01F7
:10129000B14216D9016821F00F0131430160FFF717
:1012A00015FD074607E000BFFFF710FDC11B5145C4
:1012B00001D903207AE7D8F8000000F00F00B0420F
:1012C000F2D12878400705D5A068E96820F4E060ED
:1012D0000843A0602878000706D5A068296920F493
:1012E000605040EAC100A06000F044F8A1680C4AD8
:1012F000C1F30311515C01F01F01C84009490860A6
:1013000009480068BDE8F047FFF7FEBC0020024036
:101310000010024000B4C4040024F40000127A005B
:10132000A063000860000020540000200548064922
:1013300000688968054AC1F30221515C01F01F0170
:10134000C84070476000002000100240B0630008F1
:101350000548064900688968054AC1F3C221515C05
:1013600001F01F01C84070476000002000100240DB
:10137000B0630008184910B58868C0F381021748A7
:10138000012A0BD08A684310C2F38102022A06D0D8
:101390008A68C2F38102032A03D0002010BD1846D8
:1013A00010BDCA6802F00304CA68C2F30312521CDB
:1013B000032C02D0B0FBF2F001E0B3FBF2F0CA68FC
:1013C000C968C2F306225043C1F34161491C490078
:1013D000B0FBF1F010BD0000001002400024F4004A
:1013E0002DE9F84304007AD02078FA4DC00747D0A1
:1013F000A868E96800F00C0001F003010C2802D095
:10140000082817D001E0032914D06068B0F5803FA8
:1014100017D0B0F5A02F286817D020F480302860AE
:10142000286820F4802028606068E0B1FFF74EFC57
:10143000064614E02868800322D560680028D2D0D0
:101440001EE0286840F48030EDE740F480202860FA
:10145000F7E700BFFFF73AFC801B642870D82868C4
:101460008003F7D50CE0FFF731FC064605E000BF2E
:10147000FFF72CFC801B6428F0D828688003F7D481
:10148000207880074CD5A868E96800F00C0001F0CE
:1014900003010C2802D004280DD001E002290AD053
:1014A000E068002828682BD040F480702860FFF79F
:1014B0000DFC064619E02868400502D5E0680028C2
:1014C00091D06868217C20F0FE4040EA01606860AD
:1014D000C1480068FFF718FC002800D120E076E141
:1014E000FFF7F4FB801B0228B8D828684005F7D521
:1014F0006868217C20F0FE4040EA016068600FE0EF
:1015000020F480702860FFF7E1FB064605E000BF8D
:10151000FFF7DCFB801B0228A0D828684005F7D421
:101520002078000729D560690028D5F8940013D0E9
:1015300040F00100C5F89400FFF7C8FB064606E03E
:1015400090E000BFFFF7C2FB801B022886D8D5F8C9
:1015500094008007F6D510E020F00100C5F8940053
:10156000FFF7B4FB064604E0FFF7B0FB801B022840
:1015700078D8D5F894008007F6D42078400761D554
:10158000A86D0026C00008D4A86D40F08050A86562
:10159000A86D012600F08050009090480168C905B0
:1015A00011D40168804641F480710160FFF78EFB21
:1015B000074604E0FFF78AFBC01B022852D8D8F880
:1015C0000000C005F6D5A068012815D00528D5F87B
:1015D000900016D020F00100C5F89000D5F89000DA
:1015E00020F00400C5F89000A06841F28838B8B136
:1015F000FFF76CFB07460EE0D5F8900040F00100C5
:10160000F0E740F00400C5F89000F5E7FFF75EFB57
:10161000C11B414526D8D5F890008007F6D50CE0CF
:10162000FFF754FB074604E0FFF750FBC11B4145A1
:1016300018D8D5F890008007F6D41EB1A86D20F018
:101640008050A8652078800629D5A0690028D5F8A3
:10165000980013D040F00100C5F89800FFF736FB62
:10166000064606E077E000BFFFF730FB801B02284C
:1016700077D8D5F898008007F6D510E020F0010063
:10168000C5F89800FFF722FB064604E0FFF71EFBB3
:10169000801B022865D8D5F898008007F6D4E06949
:1016A000F0B3A968C1F38101032961D00228286839
:1016B00020F0807028600BD0E86820F00300E8601C
:1016C000E86847490840E860FFF700FB04464BE044
:1016D000FFF7FCFA064604E0FFF7F8FA801B022841
:1016E0003FD828688001F7D4F4E908016FF00F02B1
:1016F00002EB01110843218A5204490802EB4151CF
:10170000A26841EA02210843217D4FF07E42490848
:1017100002EB41610843217B40EAC160E96800E0D7
:1017200062E0304A11400843E860286840F0807069
:101730002860E86840F08070E860FFF7C7FA044668
:1017400005E000BFFFF7C2FA001B022809D828688D
:101750008001F7D548E004E0FFF7B8FA001B022843
:1017600002D90320BDE8F88328688001F4D43BE067
:101770000128F7D0E868226A00F00301914226D1DF
:10178000616A00F0F0020901103991421FD1A26A8A
:1017900000F4FE41B1EB022F19D194F82C2000F097
:1017A0007841B1EBC26F12D1218E00F4C00249081A
:1017B0004905A1F50011914209D194F8341000F0C7
:1017C000C06049084906A1F1007181420CD0012096
:1017D000C8E70000001002405400002000700040E4
:1017E000FFFFEEFE0C809F010020BBE710B5401EFE
:1017F000B0F1807F01D3012010BD4FF0E024606183
:101800000F21601702F0C6FB0020A06107202061B5
:10181000002010BD70477047704770477047704791
:10182000F0B590F83C20012A3AD0012580F83C50D0
:10183000022280F83D2003685A689C68194E1A4FAE
:10184000B34201D0BB4204D122F4700C4A6842EA90
:101850000C02DFF858C002EA0C02D1F800C04CEAD2
:10186000020CC3F804C00268B2420DD0B2F1804F3E
:101870000AD00F4B9A4207D00E4B9A4204D0BA427C
:1018800002D00D4B9A4204D1896824F08003194399
:10189000916080F83D50002180F83C100846F0BD72
:1018A0000220F0BD002C0140003401408FFFFFFDFD
:1018B000000400400008004000400140704710B59F
:1018C000040003D094F83D0010B107E0012010BDE2
:1018D000002084F83C00204600F022F8022084F822
:1018E0003D00211D206801F0D9FB012084F848004B
:1018F00084F83E0084F83F0084F8400084F84100FA
:1019000084F8420084F8430084F8440084F84500D9
:1019100084F8460084F8470084F83D00002010BD9C
:1019200008B5174A01681748914211D1016E41F478
:1019300000610166006E002200F400600090114614
:101940001920FFF729FABDE808401920FFF716BA59
:101950000D4A914207D1816D41F002018165806D90
:1019600000F0020009E0094A914207D1016E41F4FA
:1019700080210166006E00F48020009008BD000008
:10198000002C0140001002400004004000480140CB
:1019900090F83D10012901D001207047022180F804
:1019A0003D100168CA6842F00102CA60006810492F
:1019B00088420ED0B0F1804F0BD00E49884208D03B
:1019C0000D49884205D00D49884202D00C49884211
:1019D00007D181680B4A1140062906D0B1F5803F36
:1019E00003D0016841F00101016000207047000050
:1019F000002C014000040040000800400034014079
:101A000000400140070001000168CA6822F001029D
:101A1000CA6001680A6A41F211131A4207D10A6AC0
:101A20009B001A4203D10A6822F001020A600121D8
:101A300080F83D100020704770B5044690F83C00D7
:101A40000025012814D0012684F83C60022084F887
:101A50003D0022689068364B184020F47F4090602B
:101A6000086870282ED010DC10F00F0F03D021E092
:101A70004FF0020070BD4FEA2012072A1AD2DFE8A9
:101A800002F0525252524A3840002A4BC21A98422F
:101A900049D009DCB0F5805F0DD0B0F5005F1CD0F7
:101AA000B0F1101F06D13EE0102A3CD0202A3AD0D7
:101AB000502A38D0012584F83D60002084F83C008D
:101AC000284670BDCB68D1E90121206801F04BFBAD
:101AD0002068816841F0770109E0CB68D1E90121F4
:101AE000206801F040FB2068816841F480418160FA
:101AF000E1E7CA684968206801F0E0FC50212068ED
:101B000006E0CA684968206801F0E9FC60212068A5
:101B100001F034FBCFE7CA684968206801F0CEFCC9
:101B200040212068F4E7226801461046F0E70000F3
:101B300088FFCEFF20001000704770B50446006893
:101B400001694FF00005C943890715D4C168C9432D
:101B5000890711D4E91E016101202077206880697E
:101B60008007204602D0FFF7E7FF04E000F00CF901
:101B7000204600F0CEF9257720680169C94349075E
:101B800017D4C168C943490713D46FF00401016138
:101B9000022020772068806910F4407F204602D020
:101BA000FFF7CAFF04E000F0EFF8204600F0B1F9BB
:101BB000257720680169C943090716D4C168C9435C
:101BC000090712D46FF00801016104202077206812
:101BD000C0698007204602D0FFF7AEFF04E000F0A6
:101BE000D3F8204600F095F9257720680169C943AC
:101BF000C90617D4C168C943C90613D46FF01001D0
:101C00000161082020772068C06910F4407F2046D9
:101C100002D0FFF791FF04E000F0B6F8204600F094
:101C200078F9257720680169C943C90708D1C168D7
:101C3000C943C90704D1891E0161204600F0E8F9B3
:101C400020680169C943090609D4C168C943090666
:101C500005D46FF0800101612046FFF7DCFD2068AC
:101C60000169C943C90509D4C168C943090605D436
:101C70006FF4807101612046FFF7CCFD2068016997
:101C8000C943490609D4C168C943490605D46FF060
:101C900040010161204600F0C9F920680169C9438B
:101CA000890609D4C168C943890605D46FF02001AB
:101CB00001612046FFF7B0FD20680169C943C902F0
:101CC00009D4C168C943C90205D46FF48011016108
:101CD0002046FFF7A3FD20680169C943890209D4A2
:101CE000C168C943890205D46FF40011016120461F
:101CF000FFF793FD20680169C943490209D4C1680F
:101D0000C943490205D46FF4800101612046FFF701
:101D100086FD20680169C94309020BD4C168C94323
:101D2000090207D46FF4000101612046BDE870404C
:101D3000FFF7C4BD70BD000010B586B00446142185
:101D40006846FEF7B1FA0E492068884215D10D4861
:101D5000C16C41F00101C164C06C002100F00100C0
:101D60000590802000900220CDE90101CDE903100B
:101D700069464FF09040FEF77BFE06B010BD0000B4
:101D80000004004000100240704770B5044690F80F
:101D90003C0000260D4601280BD0012084F83C00B1
:101DA0000C2A4AD007DC82B1042A20D0082A06D1A6
:101DB00031E0022070BD102A53D0142A63D00126CE
:101DC000002084F83C00304670BD206801F0E0F946
:101DD0002068816941F0080181612068816921F0F2
:101DE00004018161206881692A69114311E020683A
:101DF00001F01CFA2068816941F40061816120686A
:101E0000816921F480618161206881692A6941EAE0
:101E100002218161D4E7206801F050FA2068C1698D
:101E200041F00801C1612068C16921F00401C1616C
:101E30002068C1692A69114311E0206801F086FA1F
:101E40002068C16941F40061C1612068C16921F461
:101E50008061C1612068C1692A6941EA0221C161CA
:101E6000AEE7206801F0BAFA2068016D41F0080180
:101E700001652068016D21F0040101652068016D94
:101E80002A69114311E0206801F0E0FA2068016D31
:101E900041F4006101652068016D21F480610165F4
:101EA0002068016D2A6941EA0221016588E710B5C1
:101EB000040003D094F83D0010B107E0012010BDEC
:101EC000002084F83C00204600F022F8022084F82C
:101ED0003D00211D206801F0E1F8012084F8480050
:101EE00084F83E0084F83F0084F8400084F8410004
:101EF00084F8420084F8430084F8440084F84500E4
:101F000084F8460084F8470084F83D00002010BDA6
:101F10007047704730B50446022269B1042912D0D7
:101F2000082917D00C291CD0102921D094F843007F
:101F3000012824D0012030BD94F83E000128F9D1B9
:101F400084F83E201DE094F83F000128F2D184F887
:101F50003F2016E094F840000128EBD184F840209F
:101F60000FE094F841000128E4D184F8412008E012
:101F700094F842000128DDD184F8422001E084F881
:101F800043200122206801F0E1F8194B206819492B
:101F9000194A984209D0884207D0904205D0174D7F
:101FA000A84202D0164DA84203D1456C45F4004525
:101FB0004564206898420CD0B0F1804F09D0114B95
:101FC000984206D0104B984203D0884201D09042EC
:101FD00007D181680D4A1140062906D0B1F5803F2E
:101FE00003D0016841F001010160002030BD000014
:101FF000002C0140003401400040014000440140F9
:1020000000480140000400400008004007000100B3
:102010000449884205D10449012008700148FFF7AE
:10202000F3BC7047E402002008000020704790F8DD
:102030008010012918D0012180F880102421C0F8D7
:10204000841050F8641B0A680B6823F001030B60CE
:1020500022F000510022026050F8643C19602021F7
:102060000162027710467047022070477047704740
:1020700070B5044690F8800001281DD0012084F836
:1020800080002420C4F8840020680568026822F0DB
:10209000010202602068826822F060620A43826066
:1020A000204601F02FFA206805602020C4F8840043
:1020B000002084F8800070BD022070BD70B5044619
:1020C00090F8800001281DD0012084F88000242091
:1020D000C4F8840020680568026822F001020260EA
:1020E0002068826822F060420A438260204601F044
:1020F00009FA206805602020C4F88400002084F8D4
:10210000800070BD022070BD7047704770470000AE
:102110002DE9F04103680446D86919689A6840F6C9
:102120000F0528424FF0000509D186067ED501F043
:10213000200602F080573E4378D0216F27E1A94E58
:10214000A94F16400F40374370D0C70709D0CF05BD
:1021500007D501271F62D4F88C3043F00103C4F87F
:102160008C3083070AD5D30708D0276802233B6247
:10217000D4F88C3043F00403C4F88C3043070AD5FC
:10218000D30708D0276804233B62D4F88C3043F08F
:102190000203C4F88C3003070CD501F0200333434D
:1021A00008D0266808233362D4F88C3043F0080343
:1021B000C4F88C3003050BD54B0109D526684FF4C4
:1021C00000633362D4F88C3043F02003C4F88C30C1
:1021D000D4F88C30002B3AD0800609D501F02000CD
:1021E00002F08051084303D0216F09B1204688478F
:1021F000D4F88C0021688968490602D410F0280FB1
:1022000027D0204601F03EFA2068806840061BD5A2
:102210002068083050E8001F21F0400140E800121B
:10222000002AF5D1E06F78B1704900E017E08163D2
:10223000E06FFEF7CFFB002809D0E06F816B00E074
:102240002046BDE8F04108472046FFF75FFFBDE8A4
:10225000F0812046FFF75AFFC4F88C50F7E7E76E8D
:102260002026012F7ED1C7067CD5CF067AD5102037
:10227000186220688068400642D5E16F08684068AF
:102280000004000CE3D0B4F85C208242DFD9A4F84B
:102290005E000868006880062BD4206850E8001FA4
:1022A00021F4807140E80012002AF6D1206808303D
:1022B00050E8001F21F0010140E80012002AF5D18A
:1022C0002068083050E8001F21F0400140E800126B
:1022D000002AF5D1C4F88860E566216851E8000F4E
:1022E00020F0100041E80002002AF6D1E06FFEF76E
:1022F0003CFBB4F85C00B4F85E10401A81B22CE0EC
:10230000B4F85C00B4F85E10401A81B2B4F85E0014
:1023100000289CD000299AD0226852E8000F20F4AF
:10232000907042E80003002BF6D12E4BDB4320686F
:10233000083050E8002F1A4040E80027002FF6D15F
:10234000C4F88860E5662567226852E8000F20F02F
:10235000100042E80003002BF6D12046FFF786FE6E
:1023600075E7FFE7C70209D5570207D54FF480107C
:1023700018622046BDE8F041FFF7C7BE03060AD544
:1023800001F0800302F40002134304D0616F0029BE
:102390007FF456AF5BE7420611D54A060FD52046BB
:1023A000016851E8002F22F0400241E80023002B91
:1023B000F6D1C0F88460456700F048F947E70202AB
:1023C00006D54A0004D52046BDE8F041FFF79CBE83
:1023D000C001C5D50029C3DA2046BDE8F041FFF7AA
:1023E00046BE000001000010200100047136000804
:1023F00010B5040003D0D4F8840010B107E0012028
:1024000010BD002084F88000204600F027F824202A
:10241000C4F884002068016821F0010101602046B1
:1024200001F072FB0128EBD0A06A10B1204601F048
:102430008BF82068416821F49041416020688168F0
:1024400021F02A0181602068016841F001010160EA
:102450002046BDE8104001F0DBB8000010B598B090
:102460000446142111A8FDF71FFF44216846FDF71B
:102470001BFF1B492068884230D101200024CDE990
:1024800000046846FEF720FD08B1FEF76CFA154817
:10249000016E41F480410166016E01F480411691A4
:1024A000C16C41F00101C164C06C11A900F00100D0
:1024B00016904FF4C06011900220CDE9120407205D
:1024C000CDE914404FF09040FEF7D2FA00221146B9
:1024D0002520FEF761FC2520FEF750FC18B010BD4A
:1024E000003801400010024030B4D0F88830202B72
:1024F00020D1E1B1DAB190F88030012B1AD001235C
:1025000080F880300023C3660B4C0368A3420BD0D5
:102510005B681B0208D5046854E8003F43F0806301
:1025200044E80035002DF6D130BC01F027BC012075
:1025300030BC70470220FBE70080004070B5104CB3
:10254000104D607830B929686FF0010008612846A5
:10255000FFF71EFA28680021416209480A4A801CD8
:10256000037860781354401CC0B260701154BDE809
:10257000704003490122891C0448FFF7B5BF0000E1
:1025800008000020E402002068000020C8030020AA
:102590002DE9F8430446D0F884001F4616460D4640
:1025A000202851D1DDB1D6B194F8800001284BD05C
:1025B000012084F880004FF00008C4F88C802120AE
:1025C000C4F884001834FEF781FBA6878146E687AD
:1025D00054F8100C183CB0F5805F03D004E00120E3
:1025E000BDE8F883206920B12E46002584F880805C
:1025F00010E00026FAE78021204601F04BFCB8B934
:10260000C6B116F8010B21688862B4F85600401E66
:10261000A4F85600B4F856004B464FF0000200975D
:102620000028E8D14FF04001204601F033FC30B1E2
:102630000320D5E735F8020BC0F30800E3E72020BC
:10264000C4F884000020CBE70220C9E77047FEE70A
:1026500000B585B014216846FDF726FE4FF6FF70E1
:10266000009000200321CDE9020101906946024853
:10267000FEF7FEF905B000BD0008004800B585B0C2
:1026800014216846FDF710FE4FF6FF700090012000
:102690000190032003900020029069460248FEF753
:1026A000E7F905B000BD00000008004870B500243F
:1026B00006462146204600F003F900F045F94FF4A4
:1026C0009635304600F010F9641CAC42F9D370BD69
:1026D00030B587B014216846FDF7E6FD1E48C16C91
:1026E00041F00401C164C16C01F004010591C16CA9
:1026F00041F00101C164C16C01F001010591C16C9F
:1027000041F00201C164C06C012500F00200059097
:102710004FF44870CDE90005002403946946029403
:102720000E48FEF7A5F9280203940090CDE9015464
:102730004FF0904469462046FEF79AF9FFF79EFF56
:10274000A06940F48070A06104481830016841F429
:102750000871016007B030BD00100240000400485D
:10276000203AD2B2034B02EB420203EB021200F01A
:1027700019B80000A8510008F0B50E46074600251C
:1027800040F23F1407E021463846FFF7E9FF103CCE
:102790006D1CA4B2761C3278002A01D0142DF2D31D
:1027A000F0BD00002DE9F04791468A460026044618
:1027B00000F086F8DFF84080012700BF00F0C4F881
:1027C0005FF0000539F8160007FA05F108424046A7
:1027D00001D1408800E0008800F086F86D1C102DC3
:1027E000F0D3641CE4B25146204600F069F8761C30
:1027F000182EE3D3BDE8F0870000002010B5FFF7E6
:1028000067FF002000F014F8084CA080A088A0F515
:102810000241303906D000F0D7FA002000F008F865
:10282000A08010BD00F047FAF7E70000000000208C
:1028300070B51D490A6842F400720A600A6842F4E1
:1028400080720A60184C103C226842F0200222601C
:10285000164A1060086840F02000086000BF00BF02
:1028600000BF206840F020002060206840F48070A5
:102870002060FFF7EDFE4FF09041886A40F48070D1
:10288000886200BF00BF00BF0848001F006885B213
:10289000886940F480708861FFF7F0FE206840F49A
:1028A00000702060284670BD2804004814080048C5
:1028B00001B5BDF800000149488008BD00000020B6
:1028C00010B50C460146202000F070F82146BDE806
:1028D0001040212000F06AB801B5BDF800000149A0
:1028E000088008BD0000002030B5154B1968154A56
:1028F0008CB2116841F400711160124910390D68F1
:1029000045F480750D600D6845F020050D60186078
:10291000106840F02000106000BF00BF00BF0868D2
:1029200040F020000860086840F48070086000BF34
:1029300000BF00BF086840F4007008601C6030BD34
:102940001408004828040048164A10B510681649B3
:1029500083B2086840F400700860086840F4807032
:10296000086011481038046844F0200404602224F0
:1029700014600C6844F020040C6000BF00BF00BF6E
:10298000016841F020010160016841F4807101603B
:1029900000BF00BF00BF016841F400710160136017
:1029A00010BD0000140800482804004870B51A4CF7
:1029B00022681A4B95B21A6842F400721A601A68BB
:1029C00042F480721A60154A103A166846F02006E2
:1029D00016602060186840F02000186000BF00BF3B
:1029E00000BF106840F020001060106840F4807054
:1029F00010602160186840F02000186000BF00BF20
:102A000000BF106840F020001060106840F4807033
:102A10001060256070BD00001408004828040048BC
:102A20002DE9F04387B014216846FDF73DFC33489B
:102A3000C16C41F00401C164C16C01F00401059155
:102A4000C16C41F00101C164C16C01F0010105914B
:102A5000C16C41F00201C164C16C01F00201059139
:102A6000C16C41F00801C164C06C254F00F0080042
:102A70004FF47F440590012221463846FEF721F9A4
:102A8000DFF88080012204214046FEF71AF9DFF8C2
:102A900078904FF44876002231464846FEF711F907
:102AA0000125CDE900450024029469463846039487
:102AB000FDF7DEFFCDE9005469464FF090400294E7
:102AC000FDF7D6FF0720CDE9000469464846029489
:102AD000FDF7CEFF04200090CDE901546946404641
:102AE0000394FDF7C5FF0096CDE9015469464846B9
:102AF0000394FDF7BDFF07B0BDE8F083001002406E
:102B000000080048000C0048000400480B4810B5BD
:102B10000949016000214FF6FF724160C0E90212CD
:102B2000016141618161FEF7CAFE002803D0BDE862
:102B30001040FDF718BF10BD004801407C03002085
:102B400010B588B0002418480594069403940494A2
:102B5000009401941349029401604F21C0E90114CB
:102B600041F28731C0E9031444618461FEF7A7FE96
:102B700008B1FDF7F8FE4FF48050039003A90A480E
:102B8000FEF75AFF08B1FDF7EEFE00940194694686
:102B900005480294FEF744FE002801D0FDF7E3FE4D
:102BA00008B010BD002C0140E402002010B58EB02A
:102BB00000240794089409940A940B940C941C2103
:102BC00068460D94FDF770FB1E481D49016040F2F8
:102BD0008F11C0E901146321C0E903148461FEF779
:102BE0006EFE08B1FDF7BFFE4FF48050079007A9B5
:102BF0001448FEF721FF08B1FDF7B5FE1148FFF7B5
:102C000056F908B1FDF7AFFE0B940BA90D480D94D2
:102C1000FEF706FE08B1FDF7A6FE6020CDE9000430
:102C200002940422694607480494FFF7AEF808B1FD
:102C3000FDF799FE0348FFF77FF80EB010BD0000C6
:102C40000004004030030020184810B51649016008
:102C50004FF416514160002181600C22C160C0E92F
:102C600004128161C161016241628162FFF7C0FBB0
:102C700008B1FDF778FE00210C48FFF71FFA08B1F4
:102C8000FDF771FE00210948FFF7F2F908B1FDF7E1
:102C90006AFE0648FFF7CBF9002803D0BDE81040D4
:102CA000FDF761BE10BD000000380140C8030020E0
:102CB000FEE7FEE7704730B501210020FFF776FE02
:102CC0004FF47A70FDF741FE00210120FFF76EFE00
:102CD00041F290711020FFF769FE4FF41C51602003
:102CE000FFF764FE01216120FFF760FE022146200C
:102CF000FFF75CFE48F210011320FFF757FE48F281
:102D0000FE011220FFF752FE4FF4A0610220FFF7F0
:102D10004DFE41F230010320FFF748FE40F203343C
:102D200021463020FFF742FE21463120FFF73EFECC
:102D300021463220FFF73AFEE51E29463320FFF7F1
:102D400035FE03213420FFF731FE21463520FFF701
:102D50002DFE14213620FFF729FE21463720FFF7EC
:102D600025FE21463820FFF721FE21463920FFF7B6
:102D70001DFE29463A20FFF719FE03213B20FFF7ED
:102D800015FE21463C20FFF711FE4FF4A0513D20D7
:102D9000FFF70CFE4FF400719220FFF707FE21466B
:102DA0009320FFF703FE40F60D019020FFF7FEFD94
:102DB00041F218010320FFF7F9FDBDE8304040F271
:102DC00073110720FFF7F2BD10B543F20801E320AD
:102DD000FFF7ECFD1221E720FFF7E8FD41F231217A
:102DE000EF20FFF7E3FD00210120FFF7DFFD4FF4A7
:102DF000E0610220FFF7DAFD41F230010320FFF726
:102E0000D5FD00210420FFF7D1FD40F20721082065
:102E1000FFF7CCFD00210920FFF7C8FD00210A20A3
:102E2000FFF7C4FD00210C20FFF7C0FD00210D209D
:102E3000FFF7BCFD00210F20FFF7B8FD0021102097
:102E4000FFF7B4FD07211120FFF7B0FD002112208C
:102E5000FFF7ACFD00211320FFF7A8FDC820FDF708
:102E6000F5FD41F290611020FFF7A0FD40F227210F
:102E70001120FFF79BFD3220FDF7E8FD1D211220F8
:102E8000FFF794FD3220FDF7E1FD4FF400611320C0
:102E9000FFF78CFD14212920FFF788FD0B212B2043
:102EA000FFF784FD3220FDF7D1FD00212020FFF740
:102EB0007DFD00212120FFF779FD07213020FFF75C
:102EC00075FD40F207713120FFF770FD06213220B9
:102ED000FFF76CFD40F204713520FFF767FD41F606
:102EE00004713620FFF762FD04213720FFF75EFDF5
:102EF00000213820FFF75AFD40F206713920FFF714
:102F000055FD40F201713C20FFF750FD0F213D209F
:102F1000FFF74CFD00215020FFF748FDEF21512025
:102F2000FFF744FD00215220FFF740FD40F23F1122
:102F30005320FFF73BFD4FF41C516020FFF736FD97
:102F400001216120FFF732FD00216A20FFF72EFDED
:102F500000218020FFF72AFD00218120FFF726FDB8
:102F600000218220FFF722FD00218320FFF71EFDB4
:102F700000218420FFF71AFD00218520FFF716FDB0
:102F800010219020FFF712FD00219220FFF70EFD87
:102F900003219320FFF70AFD4FF488719520FFF776
:102FA00005FD00219720FFF701FD00219820FFF784
:102FB000FDFC41F218010320FFF7F8FCBDE81040CA
:102FC00040F273110720FFF7F1BC00000FB42DE9A8
:102FD000F04100240F9F06AE04EB840007EBC00114
:102FE0000D4606A8FDF772F920B9691D701DFDF7A1
:102FF0006DF938B1641C082CEEDB0020BDE8F0014F
:103000005DF814FB014804600120F7E75000002040
:103010007047FDF761BE00B593B038216846FDF7F3
:1030200043F914210EA8FDF73FF94FF40070FDF7A6
:10303000E5FE0220C1010391402104910121CDE967
:10304000080100900A21CDE90A1007900C900D901C
:103050006846FEF7C5F908B172B6FEE70F200E907C
:1030600003200F90002010901190129002210EA8C2
:10307000FEF76EF8002801D072B6FEE713B000BD6F
:103080000248016841F470010160704788ED00E07A
:103090000148FEF752BD0000E40200202DE9F04394
:1030A0000268234B234D244E244C4FF08049984214
:1030B00007D0484505D0A84203D0B04201D0A04275
:1030C00003D122F070074A683A431D4FDFF874C0FD
:1030D000DFF8748098420DD048450BD0A84209D043
:1030E000B04207D0A04205D0B84203D0604501D01D
:1030F000404503D122F44075CA682A434D6922F045
:1031000080022A4302608A68C2620A688262984228
:1031100007D0A04205D0B84203D0604501D0404559
:1031200001D10969016301214161BDE8F08300001B
:10313000002C014000040040000800400034014021
:1031400000400140004401400048014010B501F03A
:103150001F030121046A99408C430462016A9A406A
:103160001143016210BD10B5846842EA032224F4C1
:103170007F440A432243826010BD00008268034BF3
:103180001A400A4342F00701816070478FFFCFFF6A
:103190002DE9F043026A22F001020262056A4368E7
:1031A00082691C4C25F0020522400C6822F00302C3
:1031B00014438A68194E2A43174D194FDFF864C02B
:1031C000DFF86490A84207D0B04205D0B84203D0DF
:1031D000604501D0484506D122F00808CA6842EA95
:1031E000080222F00402A84207D0B04205D0B8423B
:1031F00003D0604501D0484505D14D6923F44073A3
:103200001D438B692B4343608461496841630262BB
:10321000BDE8F0838FFFFEFF002C01400034014029
:10322000004001400044014000480140F0B5026AFE
:1032300022F010020262056A42688369194C1B4E33
:1032400023400C6823F4407343EA042425F0200350
:103250008D6843EA0513144DA84201D0B04206D14F
:10326000CF6823F0800343EA071323F04003A8420A
:103270000AD0B04208D00E4DA84205D00D4DA8424C
:1032800002D00D4DA84207D14D6922F4406242EAB6
:1032900085028D6942EA85024260846149688163E2
:1032A0000362F0BDFF8FFFFE002C0140003401409F
:1032B000004001400044014000480140F0B5026A6E
:1032C00022F480720262056A4368C269194C1B4E7F
:1032D00022400C6822F00302144325F400728D682A
:1032E00042EA0522144DA84201D0B04206D1CF686F
:1032F00022F4006242EA072222F48062A8420AD045
:10330000B04208D00E4DA84205D00E4DA84202D0C2
:103310000D4DA84207D14D6923F4405343EA0513EC
:103320008D6943EA05134360C4614968C163026261
:10333000F0BD00008FFFFEFF002C01400034014073
:10334000004001400044014000480140F0B5026ADD
:1033500022F480520262056A4268C369194C1B4E0E
:1033600023400C6823F4407343EA042425F40053FB
:103370008D6843EA0533144DA84201D0B04206D10E
:10338000CF6823F4004343EA073323F48043A84281
:103390000AD0B04208D00E4DA84205D00D4DA8422B
:1033A00002D00D4DA84207D14D6922F4404242EAB5
:1033B00085128D6942EA85124260C46149680164E0
:1033C0000362F0BDFF8FFFFE002C0140003401407E
:1033D00000400140004401400048014030B5026A0D
:1033E00022F480320262046A4268036D114D2B4060
:1033F0000D681D4324F400330C8943EA04430E4C4A
:10340000A0420BD00D4CA04208D00D4CA04205D0DC
:103410000C4CA04202D00C4CA04204D14C6922F4C6
:10342000803242EA04224260056549688164036291
:1034300030BD00008FFFFEFF002C01400034014032
:1034400000400140004401400048014030B5026A9C
:1034500022F480120262046A4268036D114D24F462
:1034600000142B400D6843EA05230D8944EA0554F6
:103470000D4DA8420BD00D4DA84208D00C4DA842CE
:1034800005D00C4DA84202D00B4DA84204D14D6985
:1034900022F4802242EA8522426003654968C164C1
:1034A000046230BDFF8FFFFE002C0140003401405C
:1034B00000400140004401400048014010B5036A4B
:1034C000046A24F001040462846924F0F00444EAEC
:1034D000021423F00A020A438461026210BD10B58F
:1034E000036A23F0100303628369046A23F47043C0
:1034F00043EA023224F0A00343EA0111826101622F
:1035000010BD000030B5416EB9B102689168926893
:10351000C1F342610B4B520F9C5CE50003F10804C0
:10352000A25CB5FBF2F2A0F86A205A5C615CD200A2
:10353000B2FBF1F1A0F8681030BD0121A0F86A10CB
:10354000F8E700009063000890F82810C90706D03B
:1035500001684A68C36A22F400321A434A6090F84C
:103560002810890706D501684A68036B22F4803267
:103570001A434A6090F82810490706D501684A683E
:10358000436B22F480221A434A6090F828100907FE
:1035900006D501684A68836B22F400421A434A60E8
:1035A00090F82810C90606D501688A68C36B22F412
:1035B00080521A438A6090F82810890606D501685F
:1035C0008A68036C22F400521A438A6090F828102B
:1035D000490611D501684A68436C22F480121A43E7
:1035E0004A60416CB1F5801F06D101684A68836C5E
:1035F00022F4C0021A434A6090F82810090606D542
:1036000001684A68C06C22F4002202434A60704795
:10361000F8B500260446C0F88C60FDF757FB054658
:10362000206800686FF07E47000708D52B4600220F
:103630004FF400112046009700F02CFC60B9206880
:10364000006840070AD52B4600224FF4800120462F
:10365000009700F01FFC08B10320F8BD2020C4F83B
:103660008400C4F8880044F86C6F00202675F8BD0B
:1036700010B5806A0021A0F85E10A0F85610FEF781
:1036800045FD10BD10B5026852E8001F21F490718D
:1036900042E80013002BF6D10E4B0268083252E8C4
:1036A000001F194042E80014002CF6D1C16E012918
:1036B00008D1016851E8002F22F0100241E80023F0
:1036C000002BF6D12021C0F888100021C1660167C7
:1036D00010BD0000FEFFFFEF10B5B0F86020D0F87D
:1036E00088300168222B04D0886940F00800886186
:1036F00010BD496A836D11401980816D891C8165F7
:10370000B0F85E10491EA0F85E10B0F85E100029F7
:10371000EED1026852E8001F21F4907142E80013D4
:10372000002BF6D10168083151E8002F22F0010288
:1037300041E80023002BF5D12021C0F8881000219A
:103740000167C26E012A02D0FEF7F8FE10BDC16605
:10375000026852E8001F21F0100142E80013002B1C
:10376000F6D10168CA69D243D20601D410220A6296
:10377000B0F85C10FEF77AFC10BD00002DE9F047B0
:103780000446B0F860600068C569D0F800A0D0F8C1
:103790000880D4F88810222905D0816941F00801F9
:1037A0008161BDE8F087B4F868704FF0000963E00C
:1037B0002068406AA16D30400880A06D801CA06523
:1037C000B4F85E00401EA4F85E002068C569690771
:1037D00030D0E9070AD05FEACA5107D5012101625A
:1037E000D4F88C0040F00100C4F88C00A8070BD579
:1037F0005FEAC87008D0216802200862D4F88C0003
:1038000040F00400C4F88C0068070BD55FEAC8706C
:1038100008D0216804200862D4F88C0040F002002F
:10382000C4F88C00D4F88C0020B12046FEF76EFC62
:10383000C4F88C90B4F85E00F0B9216851E8000F2C
:1038400020F4807041E80002002AF6D1264A206860
:10385000083050E8001F114040E80013002BF6D15B
:103860002020C4F88800C4F87090E16E4846012911
:1038700023D02046FEF762FE0FB1A80698D4B4F814
:103880005E0000288DD0B4F86810814289D9206884
:10389000083050E8001F21F0805140E80012002A53
:1038A000F5D112482067206850E8001F41F0200140
:1038B00040E80012002AF6D173E7E066216851E87B
:1038C000000F20F0100041E80002002AF6D1206825
:1038D000C169C943C90601D410210162B4F85C1062
:1038E0002046FEF7C3FBC7E7FEFFFFEFD93600080F
:1038F00010B5B0F86020D0F888300168222B04D0D1
:10390000886940F00800886110BD496A1140826DE5
:103910001170816D491C8165B0F85E10491EA0F8D8
:103920005E10B0F85E100029EED1026852E8001F68
:1039300021F4907142E80013002BF6D101680831A0
:1039400051E8002F22F0010241E80023002BF5D1BD
:103950002021C0F8881000210167C26E012A02D020
:10396000FEF7ECFD10BDC166026852E8001F21F0B1
:10397000100142E80013002BF6D10168CA69D24356
:10398000D20601D410220A62B0F85C10FEF76EFB7A
:1039900010BD00002DE9F0470446B0F860600068F3
:1039A000C569D0F800A0D0F80880D4F88810222982
:1039B00005D0816941F008018161BDE8F087B4F864
:1039C00068704FF0000963E02068406AA16D3040E4
:1039D0000870A06D401CA065B4F85E00401EA4F8FD
:1039E0005E002068C569690730D0E9070AD05FEA40
:1039F000CA5107D501210162D4F88C0040F00100C2
:103A0000C4F88C00A8070BD55FEAC87008D02168FD
:103A100002200862D4F88C0040F00400C4F88C0046
:103A200068070BD55FEAC87008D0216804200862D7
:103A3000D4F88C0040F00200C4F88C00D4F88C005C
:103A400020B12046FEF762FBC4F88C90B4F85E000B
:103A5000F0B9216851E8000F20F4807041E80002BD
:103A6000002AF6D1264A2068083050E8001F11408D
:103A700040E80013002BF6D12020C4F88800C4F8D9
:103A80007090E16E4846012923D02046FEF756FD8E
:103A90000FB1A80698D4B4F85E0000288DD0B4F811
:103AA0006810814289D92068083050E8001F21F051
:103AB000805140E80012002AF5D1124820672168A1
:103AC00051E8000F40F0200041E80002002AF6D142
:103AD00073E7E066216851E8000F20F0100041E82C
:103AE0000002002AF6D12068C169C943C90601D481
:103AF00010210162B4F85C102046FEF7B7FAC7E760
:103B0000FEFFFFEFF13800082DE9F041044601689F
:103B100080682269E3691043626900251A431043F3
:103B2000DFF82CC20A688B4B1A4002430A602068F7
:103B30004168E26821F44051114341602168A06965
:103B4000614501D0226A10438A68834B1A400243C0
:103B50008A602068C16A626A21F00F011143C16264
:103B60007E4923687E488B420DD1D0F8880010F042
:103B7000030006D0012855D0022842D003283FD1A7
:103B800052E001203DE077498B420BD1D0F888000C
:103B900010F00C0035D0042833D0082840D00C2871
:103BA0002ED141E070498B420BD1D0F8880010F043
:103BB000300026D0102835D0202831D030281FD111
:103BC00032E06A498B420BD1D0F8880010F0C00077
:103BD00017D0402826D0802822D0C02810D123E03A
:103BE00063450DD1D0F8880010F4406009D0B0F5DD
:103BF000806F17D0B0F5006F12D0B0F5406F13D0C2
:103C000010205B495B4F00264FF4004263453BD1D7
:103C100060B1022813D004280BD0082872D10DE01F
:103C20000220EEE70420ECE70820EAE7FDF77EFB40
:103C300001E0FDF79FFB010001D17CE01146606AC5
:103C400037F810206768B1FBF2F007EB47038342B7
:103C500070D8B0EB073F6DD8002308461946FCF733
:103C6000D9FA090241EA106102027808101871417C
:103C70003A460023FCF7CEFA3F4AA0F54071914244
:103C800058D82168C86056E0E3694FF6EF78934250
:103C90002CD109284ED2DFE800F00508114D0D4D5A
:103CA0004D4D1000FDF742FB01E0FDF751FB010017
:103CB00004D140E0FDF75EFBF9E71146606A37F892
:103CC0001000B1FBF0F04100606801EB5001B1FB66
:103CD000F0F0A0F1100141452CD84FF6F0710140F1
:103CE000C0F3420001432068C16024E0092821D2CA
:103CF000DFE800F0050912200E2020201100FDF75A
:103D000015FB02E016E0FDF723FB010004D112E0F1
:103D1000FDF730FBF9E71146606A37F81000B1FB98
:103D2000F0F1606801EB5001B1FBF0F0A0F110017F
:103D300041450AD901250120A4F86A0024F8680F3A
:103D40002846A660E660BDE8F08180B299E70000F1
:103D500000800040F369FFCFFFF4FF1100380140FD
:103D6000001002400044004000480040004C004069
:103D70000024F40078630008FFFC0F0070B5816533
:103D8000A0F85C20A0F85E200021016783684FF452
:103D90008055FF24AB4204D10369FBB940F2FF1305
:103DA00022E07F26C3B1B3F1805F1AD0A0F8601083
:103DB000C0F88C102223C0F888300368083353E819
:103DC000004F44F0010443E80046002EF5D1436E55
:103DD000B3F1005F0ED032E0036943B9A0F8604050
:103DE000E6E703691BB13F23A0F86030E0E7A0F8E5
:103DF0006060DDE7B0F86830934220D88268AA425C
:103E000001D10269CAB11F4A026780F880100169B6
:103E100041B1026852E8001F41F4807142E800138A
:103E2000002BF6D10168083151E8002F42F0805292
:103E300041E80023002BF5D121E0134AE4E7826832
:103E4000AA4201D102697AB1104A026780F8801053
:103E5000016959B1026852E8001F41F4907142E8CB
:103E60000013002BF6D10AE0094AEEE7026852E897
:103E7000001F41F0200142E80013002BF6D1002082
:103E800070BD0000953900087D370008F138000842
:103E9000D93600082DE9F0479A4617460E460446E3
:103EA0004FF000094FF02008089D4AE0681C48D0F8
:103EB000FCF70CFFA0EB0A00A8422AD84DB32068FB
:103EC000016849073DD5C069C043000539D4216860
:103ED0004FF400600862206850E8001F21F4D071A0
:103EE00040E80012002AF6D12068083050E8001F90
:103EF00021F0010140E80012002AF5D144F8848F36
:103F0000C4F80480C4F8088004F8049C0320BDE8C9
:103F1000F087216851E8000F20F4D07041E80002DA
:103F2000002AF6D12068083050E8001F21F0010176
:103F300040E80012002AF5D144F8848FC4F80480C8
:103F4000E2E72068C06936EA000004D00020B842E9
:103F5000ACD00020DBE70120F9E700000148FEF7C4
:103F6000D7B80000C8030020FEE700000FB4084BDC
:103F700010B504A902AA039800F0F2F8044602A9B9
:103F8000002000F070FC204610BC5DF814FB00001F
:103F9000674800080907090E002804DB00F1E0204B
:103FA00080F80014704700F00F0000F1E02080F866
:103FB000141D7047004870476400002002E008C8E4
:103FC000121F08C1002AFAD170477047002001E093
:103FD00001C1121F002AFBD1704700002DE9FF5FCD
:103FE00082B00021DDE90430020DDDF840B003436A
:103FF00018D044F61050A2F2FF3242431514119823
:1040000001281FD0A5EB0B00401C5FEA000A4FF00F
:1040100000064E4FDFF83891B046504615D5CAF12C
:10402000000413E0119801244AA3012801D16FEA8A
:104030000B010298119AC0E90031C0E9024206B0B2
:10404000BDE8F09FCBF10000DFE704460021404AC5
:10405000491842EB0450CDE9001012E0E00707D008
:1040600032463B4640464946FCF7FBF980468946C6
:1040700032463B4610461946FCF7F3F906460F4612
:104080006410002CEAD1DDE90401DDE90023BAF176
:10409000000F06DAFCF7E5F942464B46FCF7E1F97A
:1040A00005E0FCF73DFB42464B46FCF739FB044676
:1040B0000E460022284BFCF7BBFB03D84FF0FF3025
:1040C000014607E00022254B20463146FCF722F945
:1040D000FCF795FB102409E0002C0ADB0A220023E0
:1040E000FCF798F8039B30321A55641E50EA01021F
:1040F000F2D1641C039AC4F111031444119A012AE9
:1041000003D0012208430DD10AE0084304D0002067
:104110004FF0110B119072E7A3EB0B056D1E0DE034
:104120005B4504DD4FF0000205F1010504E003DA10
:104130004FF00002A5F10105002AECD00298119978
:10414000C0E90231C0E9004579E7000000001440F1
:104150000000F03F300000000000F0430000E03FAE
:104160002DE9FF4F95B09A46884606460025EEE1B8
:10417000252877D100242746F94A0121039400E03D
:10418000044316F8013F203B01FA03F01042F7D137
:1041900030782A2811D06FF02F033078A0F1300248
:1041A000092A16D8039A44F0020402EB820203EBB8
:1041B00042021044761C0390EFE758F8042B039258
:1041C000002A03DA504244F40054039044F00204FD
:1041D000761C30782E2816D116F8010F44F004040E
:1041E0002A280DD06FF02F023078A0F13003092B70
:1041F00009D807EB870302EB4303C718761CF3E7E4
:1042000058F8047B761C30786C280FD006DC4C28DC
:1042100017D068280DD06A2814D104E0742810D073
:104220007A280FD10DE044F400140AE044F480141D
:1042300001E044F440147278824202D104F5801403
:10424000761C761C307866280BD013DC582877D083
:1042500009DC002875D04528F6D04628F4D0472838
:104260001AD193E118E0632835D0642879D0652805
:1042700012D18BE1702873D008DC6728F1D069284F
:104280006FD06E280DD06F2806D1ACE073282CD0EB
:10429000752874D0782853D05246179990476D1CD2
:1042A00054E1C4F30250022809D003280DD0D8F8F5
:1042B000001004280DD00D6008F1040846E1D8F87C
:1042C0000010EA17C1E90052F6E7D8F800100D8097
:1042D000F2E70D70F0E718F8041B8DF800100020CD
:1042E0008DF80100EB46012003E058F804BB4FF0C5
:1042F000FF3061074FF0000102D40DE009F1010128
:104300008946B9420FDA8145F8DB1BF8091000290C
:10431000F4D108E009F1010189468142FADB1BF87A
:1043200009100029F6D103985346A0EB090721464E
:104330003846179A00F080FA284400EB090507E098
:1043400044E008E10DE01BF8010B52461799904735
:10435000B9F10109F7D2534621463846179AF2E0DF
:1043600039E00A21C4F302524FF0000B0091022AF7
:1043700006D058F8040BC117032A09D00AE023E03D
:1043800008F1070020F00702F2E80201904605E07C
:1043900000B2C117042A01D140B2C117002906DAC0
:1043A0000A460021404261EB02012D2202E0220573
:1043B00004D52B228DF80420012203E0E20701D06E
:1043C0002022F7E7914657E00A2100E010214FF044
:1043D000000B00910BE010214FF0000B44F004049F
:1043E0000827009103E008204FF0000B0090C4F371
:1043F0000252022A05D058F8040B0021032A08D0E3
:1044000008E008F1070020F00702F2E802019046F8
:1044100003E080B2042A00D1C0B24FF000092207A5
:104420002AD53278702A07D0DDF800C08CF0100C45
:104430005CEA0B0C05D00EE040228DF8042001222E
:1044400008E050EA010306D030238DF804308DF8DF
:10445000052002229146009B83F0080353EA0B03D8
:104460000AD150EA010201D1620705D530228DF848
:1044700004204FF001097F1E3278582A04D039A257
:104480000C920CAA02920BE03BA2F9E75B46009A61
:10449000FBF7C0FE0C9B9B5C029A521E02921370AB
:1044A00050EA0102F2D1029804A9081A00F1200B87
:1044B000600702D524F4803400E001275F4502DD67
:1044C000A7EB0B0000E0002000EB0B01009003982D
:1044D0004944401A0390E00306D453462146179AF4
:1044E000039800F0A9F90544002706E001A8524608
:1044F000C05D179990476D1C7F1C4F45F6DBE003AC
:104500000CD553462146179A039800F095F90544B7
:1045100004E030205246179990476D1C0099481EC0
:1045200000900029F5DC08E00298029952460078D4
:10453000491C0291179990476D1CBBF10001ABF12A
:10454000010BF1DC5BE100F065F90544761C307885
:1045500000287FF40DAE19B02846BDE8F08F0000AA
:104560000928010030313233343536373839616249
:10457000636465660000000030313233343536370D
:10458000383941424344454600000000600700D4EA
:10459000062708F1070020F00700F0E80223804614
:1045A00003F0004C5FEA0C0001D097A009E0200561
:1045B00001D596A005E0E00701D095A001E0AFF29B
:1045C0004C001390307823F0004365280CD006DCB3
:1045D000452809D046281DD047287FD13BE06628D2
:1045E00018D067287AD136E00021112F01DB112085
:1045F00000E0781CCDE9000104A90CA8FFF7EEFC4F
:10460000DDE90D010C9A4FF0000B07F10109109242
:1046100000914EE04FF000400097CDE9011004A951
:104620000CA8FFF7DBFCDDE90D020C9B0F994FF0A6
:10463000000B91461093009211B9791C00EB01090F
:10464000B7EB090003D4C0F1FF3B07F10109A9EB67
:104650000700019042E0012F00DA01270021112F0D
:1046600001DD112000E03846CDE9000104A90CA8C5
:10467000FFF7B4FCDDE90D010C9A00914FF0000B3F
:10468000B946109221070FD4009A4A4503DA9146A1
:1046900001E0A9F10109B9F1010F05DD109AA9F1B5
:1046A0000101515C3029F4D0B84202DA10F1040F54
:1046B00003DA0121CDE9011010E0002803DC834476
:1046C000A9EB000102E0411C494500DD8946A0EB51
:1046D0000B00401C01904FF000400290200705D4D1
:1046E0000198484502DB4FF0FF30019000208DF823
:1046F0004B0002980DF14B07B0F1004F25D002207E
:104700000C902B200D90029800280CDA4042029069
:104710002D200D9007E00A210298FBF725FF30318C
:10472000029007F8011D0C99481E0C900029F2DC3C
:1047300002980028EFD1791E0D980870307800F0AB
:10474000200040F0450007F8020D11A8C01BC01D55
:1047500002901398007800B1012000EB0901019844
:1047600001EBE071029801440398401A401E039047
:10477000E00306D453462146179A039800F05CF8EC
:1047800005441398007818B15246179990476D1C4C
:10479000E00323D553462146179A039800F04CF8BE
:1047A00005441BE0BBF1000F07DB0098584504DD12
:1047B0001098179910F80B0001E017993020524615
:1047C000904701980BF1010B401E05F10105019086
:1047D00004D12E205246179990476D1CB9F1000163
:1047E000A9F10109DEDC05E017F8010B5246179923
:1047F00090476D1C0299481E02900029F4DC534634
:104800002146179A03989EE62D0000002B00000019
:10481000200000002DE9F041044600251E46174601
:10482000880404D405E039462020B0476D1C641E7E
:10483000F9D52846BDE8F0812DE9F0410446002570
:104840001E469046C80301D5302700E02027880483
:1048500004D505E041463846B0476D1C641EF9D5C5
:104860002846BDE8F0810A68531C0B601070704741
:1048700030B5002403E0A518455D0D55641C9C422D
:10488000F9DB0020C85430BD70B50546FBF717FDB5
:10489000162803D0C823132245A181E00423002257
:1048A00048492846FFF7E4FF0423052246492846E5
:1048B000FFF7DEFF444902230A2232312846FFF780
:1048C000D7FF41483230FBF718FD3E4C3E49303CA3
:1048D0000223A0610C2232312846FFF7C9FF3A4873
:1048E0003230FBF70AFD3849E06102230E223231F3
:1048F0002846FFF7BDFF34483230FBF7FEFC324953
:1049000020620223102232312846FFF7B1FF2E48E1
:104910003230FBF7F2FC2C49606202231222323162
:104920002846FFF7A5FF28483230FBF7E6FC26496A
:10493000A0620223142232312846FFF799FF224851
:104940003230FBF7DAFCE0621F4832213230FBF7ED
:10495000ABFC2846FBF7B3FC01462846FBF7A4FC5A
:104960001AA11848FBF7B2FC40B11AA11548FBF791
:10497000ADFC18B1C823132218A111E0E0690C287E
:104980000BDC206A1F2808DC606A182805DCA06A96
:104990003C2802DCE06A3C2807DDC823132214A16E
:1049A0001848FDF7F5FD002070BD012070BD000026
:1049B0004572726F72205479706520466F726D6116
:1049C00074310A0038000020EA000020564E42529E
:1049D00000000000434E4252000000004572726F1A
:1049E00072205479706520466F726D6174320A00CE
:1049F0004572726F72205479706520466F726D61D6
:104A000074330A00C8030020094810B58168C068E3
:104A1000C1F10801081A002803DD0121084600F051
:104A200005FA0021BDE81040012000F0FFB90000A8
:104A30000800002010B50C460449FBF755FC204641
:104A4000BDE810400249FBF74FBC000038000020D1
:104A5000EA00002010B500231946012403EB83026D
:104A600000EBC2025B1C11705171D1601161916148
:104A70005161D161C2E90814082BEFDB10BD0000C1
:104A800000B50A4987B08A690092CA6901920A6A28
:104A900003924A6A02928A6A0492C96A05911822AC
:104AA0006946FBF7E8FB07B000BD000008000020E6
:104AB0000FB4142230B587B00EA9139D6846059532
:104AC000FBF7D9FB0AAC94E80F00FEF77FFAC8BBEE
:104AD0005FF0000404EB840005EBC000406A90B373
:104AE0001DA10AA8FBF7F2FB70B31D480168491C21
:104AF000016004EB840005EBC0040AA92046FBF723
:104B0000F3FB601D0DF12D01FBF7EEFB0D98E0604E
:104B10000E9820611098A0610F9860611198E06173
:104B200012982062002060620E480168491E0160F0
:104B30000020FDF7BBFD00F0E7F8012007B030BC16
:104B40005DF814FB06E002E0FFE70748CEE7641CCF
:104B5000082CBFDB0020F1E7434E4252000000006A
:104B6000140000200C0000201000002010B52DEDD6
:104B7000028B00F06FF83249324C012818D002281D
:104B80009FED318B21D0032836D004280DD16269E6
:104B90002F480A40012A4DD000680021816302207D
:104BA00000F044F96069401C6061BDEC028B10BDEF
:104BB00020690840012805D000F0F2F82069401C67
:104BC0002061F2E700F0A0F8F8E72069084001282A
:104BD000EBD194ED0E0B53EC182B51EC100BFBF7B3
:104BE00099FBC4E90E0194ED100B53EC182B51EC1A
:104BF000100BFBF78FFB15E0206908400128D4D18A
:104C000094ED0E0B53EC182B51EC100BFBF723FC1F
:104C1000C4E90E0194ED100B53EC182B51EC100B62
:104C2000FBF719FCC4E91001BDEC028BBDE8104094
:104C300000F0B6B80068142181630121AFE70000DD
:104C40000100008008000020000000000000E03F9C
:104C50003003002070B52B4C002501212046FCF7C5
:104C60002BF870B90520FBF7F1FE01212046FCF777
:104C700023F800B9012501212046FCF71DF8002882
:104C8000F9D002212046FCF717F870B90520FBF790
:104C9000DDFE02212046FCF70FF800B902250221B3
:104CA0002046FCF709F80028F9D004212046FCF73B
:104CB00003F870B90520FBF7C9FE04212046FBF775
:104CC000FBFF00B9032504212046FBF7F5FF002870
:104CD000F9D04FF0904401212046FBF7EDFF70B969
:104CE0000520FBF7B3FE01212046FBF7E5FF00B9E5
:104CF000042501212046FBF7DFFF0028F9D02846D4
:104D000070BD00000004004810B50020FDF7CEFC87
:104D100012A11820FDF730FD164C17A11948A26802
:104D2000FFF724F917494820FDF726FD154816A17D
:104D30000A30E268FFF71AF9124978200A31FDF7C4
:104D40001BFD104813A114306268FFF70FF90D49DD
:104D5000BDE810401431A820FDF70EBD2020202012
:104D60002020204461746120202020202020202049
:104D70000000000008000020202020434E42523A4C
:104D800025640000CC000020202020564E42523ADC
:104D90002564000020202049444C453A2564000049
:104DA00010B50020FDF782FC10A11820FDF7E4FCEF
:104DB000144C15A1184894ED0E0B53EC102BFFF773
:104DC000D5F815494820FDF7D7FC94ED100B124893
:104DD00053EC102B11A10A30FFF7C8F80E49BDE8BB
:104DE00010400A317820FDF7C7BC000020202020A9
:104DF00020202050617261202020202020202020AF
:104E00000000000008000020202020434E42523ABB
:104E1000252E326600000000CC0000202020205605
:104E20004E42523A252E32660000000009281DD25B
:104E3000DFE800F01C05080B0E1114171A004FF4E0
:104E4000807313E04FF4007310E04FF480630DE0C3
:104E50004FF400630AE04FF4805307E04FF400532F
:104E600004E04FF4804301E04FF40043054829B1CA
:104E7000012906D119460022FBF723BF194601225A
:104E8000FAE77047000800488AB0FBF72DFFFEF7ED
:104E9000C2F8FDF7C5FDFDF7D7FEFDF787FEFDF76C
:104EA00035FEFDF74DFEFDF7A9FC3848FFF7D2FDB2
:104EB000012237493748FDF717FB0020FDF7F6FBC5
:104EC0004FF6FF70FDF708FD0020FDF7F1FCFFF73E
:104ED0001BFF04213048FDF71DF800210120FFF7DA
:104EE000A5FF00210220FFF7A1FF00210320FFF70B
:104EF0009DFF00210420FFF799FF00210520FFF707
:104F000095FF00210620FFF791FF00210720FFF702
:104F10008DFF00210820FFF789FF1D4CA41E20787B
:104F200078B30020607020701C48FFF7ADFC20B300
:104F300016491D39481FFFF77DFD6846FFF7A0FDA4
:104F40001248182269461838FBF795F90F48059062
:104F5000A0F1140114226846FBF78DF90F4A803244
:104F600052F8660F0690516807911389ADF820300A
:104F7000D2F80A30089A00F0EFF864210748FBF7EE
:104F800093F9FFF7F3FDFFF73FFDC8E7700100203D
:104F90000A000020C8030020300300206800002021
:104FA0000FB42DE9F04F1E462DED028B85B057A1B1
:104FB000DDE918A4DDE9159710A8DDF85CB0DDF88F
:104FC0005080FBF783F9B8B352480168491E01606D
:104FD000514800BF514D90ED008B286800EB8000D8
:104FE00004EBC000C2680169B21AA8EB010102EB30
:104FF000420201EB82014FF43472514382694369EA
:10500000BA1A02EB420201EBC202A9EB03015618E5
:10501000026AC069AAEB0202ABEB0000C0EB001011
:1050200002EB8000002800DD761C002E0BDA3CA18C
:105030004048FEF79BFF17E0FFE73F480168491E25
:1050400001603E48C6E73046FBF77DFA53EC182B6B
:10505000FBF707FACDE902010DF1450310AA00960E
:1050600037A13448FEF782FF6423122231493848C1
:10507000FDF78EFA32212F48FBF716F9286800EB6E
:10508000800004EBC00100200870296801EB810159
:1050900004EBC1014871296801EB810104EBC101F6
:1050A000C860296801EB810104EBC101086129682E
:1050B00001EB810104EBC1018861296801EB8101E9
:1050C00004EBC1014861296801EB810104EBC101D6
:1050D000C861296801EB810104EBC10108622968FC
:1050E000012001EB810104EBC1014862194801680C
:1050F000491C01600020FDF7D9FAFFF705FE05B055
:10510000BDEC028BBDE8F00F5DF814FB434E42523C
:105110000000000014000020480000205000002083
:105120006572726F7220696E76616C696420746951
:105130006D650000B002002010000020400000203B
:1051400025733A25733A25643A252E32660000000D
:10515000C80300200C0000200FB42DE9F04186B0F8
:1051600006460F469046159D0FAC14226846211D39
:105170000595FBF780F84246394630460F9BFFF70E
:1051800097FC00280BD11422211D68460595FBF7DA
:1051900072F84246394630460F9BFFF701FF06B0D2
:1051A000BDE8F0015DF814FB000000000000000005
:1051B00000000000000000000000000000000000EF
:1051C00000000000000000000000000000000000DF
:1051D000000000000000000000008001800180014C
:1051E00080018001800180018001800180018001B7
:1051F00080018001000000008001800100000000AB
:10520000000000000000000000000000CC00CC0006
:10521000CC00CC00CC00CC0000000000000000005E
:10522000000000000000000000000000000000007E
:10523000000000000000000000000000000000006E
:1052400000000000600C600C600C30063006FE1F91
:10525000FE1F300638071803FE1FFE1F1803180331
:105260008C018C018C01000000008000E003F80F2D
:105270009C0E8C1C8C188C009800F801E007800EA6
:10528000801C8C188C189C18B80CF00FE003800060
:1052900080000000000000000000000000000E1868
:1052A0001B0C110C11061106110311039B018E0139
:1052B000C038C06C60446044304430441844186CBA
:1052C0000C380000000000000000E001F003380787
:1052D000180618063003F001F000F8009C310E3378
:1052E000061E061C061C063FFC73F0210000000091
:1052F0000000000000000000000000000C000C0096
:105300000C000C000C000C0000000000000000006D
:10531000000000000000000000000000000000008D
:1053200000000000000000000000000200038001F7
:10533000C000C0006000600030003000300030006D
:10534000300030003000300060006000C000C0005D
:105350008001000300020000000020006000C00087
:10536000800180010003000300060006000600061D
:10537000000600060006000600030003800180010D
:10538000C0006000200000000000000000000000DD
:1053900000000000C000C000D806F807E00130039C
:1053A00038070000000000000000000000000000BE
:1053B00000000000000000000000000000000000ED
:1053C0000000000080018001800180018001FC3F1D
:1053D000FC3F80018001800180018001000000000D
:1053E00000000000000000000000000000000000BD
:1053F00000000000000000000000000000000000AD
:105400000000000000000000000080018001000199
:10541000000180000000000000000000000000000B
:10542000000000000000000000000000000000007C
:10543000E007E0070000000000000000000000009E
:10544000000000000000000000000000000000005C
:10545000000000000000000000000000000000004C
:1054600000000000000000000000C000C0000000BC
:1054700000000000000000000000000C000C00060E
:105480000006000600030003000380038001800182
:105490008001C000C000C00060006000000000008B
:1054A00000000000000000000000E003F007380EDC
:1054B000180C0C180C180C180C180C180C180C18CC
:1054C0000C180C18180C380EF007E0030000000050
:1054D0000000000000000000000000018001C00189
:1054E000F001980188018001800180018001800124
:1054F00080018001800180018001800100000000A6
:1055000000000000000000000000E003F80F180C8D
:105510000C180C1800180018000C0006000380017D
:10552000C000600030001800FC1FFC1F00000000DD
:1055300000000000000000000000E001F807180E65
:105540000C0C0C0C000C0006C003C007000C00186B
:1055500000180C180C18180CF807E00300000000E5
:1055600000000000000000000000000C000E000F12
:10557000000F800DC00C600C600C300C180C0C0C73
:10558000FC3FFC3F000C000C000C000C0000000075
:1055900000000000000000000000F80FF80F1800E5
:1055A00018000C00EC03FC071C0E001C001800186F
:1055B00000180C181C0C180EF807E003000000007F
:1055C00000000000000000000000C007F00F381CC1
:1055D000181818000C00CC03EC0F3C0E1C1C0C1807
:1055E0000C180C18181C380EF007E003000000001F
:1055F00000000000000000000000FC1FFC1F000C69
:1056000000060006000380038001C001C000E00026
:1056100060006000700030003000300000000000CA
:1056200000000000000000000000E003F007380E5A
:10563000180C180C180C3806F007F007180C0C188A
:105640000C180C180C18380CF80FE00300000000C0
:1056500000000000000000000000E003F007380E2A
:105660001C0C0C180C180C181C1C381EF81BE0190C
:105670000018000C000C1C0EF807F00100000000E0
:10568000000000000000000000000000000000001A
:105690000000000080018001000000000000000008
:1056A00000000000000000008001800100000000F8
:1056B00000000000000000000000000000000000EA
:1056C00000000000800180010000000000000000D8
:1056D00000000000000000008001800100010001C6
:1056E000800000000000000000000000000000003A
:1056F00000000000000000000010001C800FE0030C
:10570000F8001800F800E003800F001C00100000F3
:105710000000000000000000000000000000000089
:105720000000000000000000F81F00000000000062
:10573000F81F000000000000000000000000000052
:105740000000000000000000000000000000000059
:10575000000000000000000008003800F001C00751
:10576000001F0018001FC007F001380008000000EB
:1057700000000000000000000000E003F80F180C1B
:105780000C180C180018000C000600038001C00063
:10579000C000C00000000000C000C0000000000009
:1057A000000000000000000000000000E0071818E2
:1057B0000420C229224A1144094409440944092207
:1057C0001113E20C024004201818E007000000004A
:1057D0000000000000000000000080038003C006FD
:1057E000C006C006600C600C301830183018F83F46
:1057F000F83F1C700C600C6006C006C00000000082
:1058000000000000000000000000FC03FC0F0C0C76
:105810000C180C180C180C0CFC07FC0F0C180C3096
:105820000C300C300C300C18FC1FFC070000000082
:1058300000000000000000000000C007F01F383822
:105840001C300C700660060006000600060006000C
:10585000060006600C701C30F01FE007000000001E
:1058600000000000000000000000FE03FE0F060E16
:1058700006180618063006300630063006300630A8
:10588000063006180618060EFE0FFE030000000084
:1058900000000000000000000000FC3FFC3F0C0086
:1058A0000C000C000C000C00FC1FFC1F0C000C007A
:1058B0000C000C000C000C00FC3FFC3F0000000042
:1058C00000000000000000000000F83FF83F180052
:1058D0001800180018001800F81FF81F180018000A
:1058E0001800180018001800180018000000000028
:1058F00000000000000000000000E00FF83F3C78CE
:105900000E6006E007C00300030003FE03FE03C0B1
:1059100007C006C00EC03CF0F83FE00F00000000DA
:10592000000000000000000000000C300C300C30C3
:105930000C300C300C300C30FC3FFC3F0C300C3089
:105940000C300C300C300C300C300C3000000000EF
:1059500000000000000000000000800180018001C4
:10596000800180018001800180018001800180012F
:105970008001800180018001800180010000000021
:105980000000000000000000000000060006000605
:1059900000060006000600060006000600060006D7
:1059A0000006180618063807F003E00100000000A2
:1059B0000000000000000000000006300618060C81
:1059C000060606038601C60066007600DE008E012C
:1059D00006030606060C06180630066000000000E6
:1059E000000000000000000000001800180018006F
:1059F00018001800180018001800180018001800E7
:105A00001800180018001800F81FF81F0000000008
:105A1000000000000000000000000EE01EF01EF07C
:105A20001EF036D836D836D836D866CC66CC66CC9A
:105A3000C6C6C6C6C6C6C6C686C386C300000000A4
:105A4000000000000000000000000C301C303C3062
:105A50003C306C306C30CC30CC308C310C330C336F
:105A60000C360C360C3C0C3C0C380C3000000000A2
:105A700000000000000000000000E007F81F1C38D4
:105A80000E70066003C003C003C003C003C003C0A0
:105A900003C006600E701C38F81FE007000000000D
:105AA00000000000000000000000FC0FFC1F0C388C
:105AB0000C300C300C300C300C18FC1FFC070C00A8
:105AC0000C000C000C000C000C000C00000000008E
:105AD00000000000000000000000E007F81F1C3874
:105AE0000E70066003E003C003C003C003C003C020
:105AF00007E006630E3F1C3CF83FE0F700C00000E3
:105B000000000000000000000000FE0FFE1F06382D
:105B10000630063006300638FE1FFE07060306066E
:105B2000060C061806180630063006600000000055
:105B300000000000000000000000E003F80F1C0C53
:105B40000C180C180C001C00F803E00F001E0038A5
:105B5000063006300E301C1CF80FE0070000000075
:105B600000000000000000000000FE7FFE7F8001BA
:105B7000800180018001800180018001800180011D
:105B8000800180018001800180018001000000000F
:105B9000000000000000000000000C300C300C3051
:105BA0000C300C300C300C300C300C300C300C3015
:105BB0000C300C300C301818F81FE0070000000003
:105BC0000000000000000000000003600630063006
:105BD00006300C180C180C18180C180C380E30065F
:105BE0003006700760036003C001C00100000000C0
:105BF000000000000000000000000360C361C361FA
:105C0000C3616633663366336633663366336C1B53
:105C10006C1B6C1B2C1A3C1E380E380E000000004A
:105C2000000000000000000000000FE00C701830C1
:105C30003018700C600EC00780038003C003E006BC
:105C4000700C301C18180C300E6007E000000000CB
:105C50000000000000000000000003C006600C30DF
:105C60001C383818300C6006E007C0038001800142
:105C7000800180018001800180018001000000001E
:105C800000000000000000000000FC7FFC7F0060BE
:105C900000300018000C000600038001C000600006
:105CA000300018000C000600FE7FFE7F00000000A0
:105CB00000000000000000000000E003E0036000BE
:105CC00060006000600060006000600060006000D4
:105CD00060006000600060006000600060006000C4
:105CE0006000E003E00300000000300030006000CE
:105CF00060006000C000C000C000C00180018001E1
:105D000080010003000300030006000600000000FD
:105D100000000000000000000000E003E0030003BA
:105D2000000300030003000300030003000300035B
:105D3000000300030003000300030003000300034B
:105D40000003E003E003000000000000C001C00108
:105D500060036003600330063006180C180C000066
:105D60000000000000000000000000000000000033
:105D70000000000000000000000000000000000023
:105D80000000000000000000000000000000000013
:105D900000000000000000000000FFFFFFFF000007
:105DA000000000000000000000000C000C000C00CF
:105DB0000C000C000C0000000000000000000000BF
:105DC00000000000000000000000000000000000D3
:105DD00000000000000000000000000000000000C3
:105DE00000000000F003F8071C0C0C0C000FF00F73
:105DF000F80C0C0C0C0C1C0FF80FF0180000000035
:105E0000000000000000000000001800180018004A
:105E100018001800D803F80F380C1818181818189C
:105E2000181818181818380CF80FD80300000000BC
:105E30000000000000000000000000000000000062
:105E400000000000C003F007300E180C1800180006
:105E500018001800180C300EF007C00300000000F6
:105E600000000000000000000000001800180018EA
:105E700000180018C01BF01F301C1818181818182C
:105E8000181818181818301CF01FC01B000000004C
:105E90000000000000000000000000000000000002
:105EA00000000000C003F00F300C1818F81FF81F96
:105EB000180018003818301CF00FC0070000000050
:105EC00000000000000000000000800FC00FC000B4
:105ED000C000C000F007F007C000C000C000C00054
:105EE000C000C000C000C000C000C0000000000032
:105EF00000000000000000000000000000000000A2
:105F000000000000E00DF80F180E0C0C0C0C0C0C2F
:105F10000C0C0C0C0C0C180EF80FE00D000C0C0CFB
:105F20001C06F807F0010000000018001800180017
:105F300018001800D807F80F381C18181818181867
:105F40001818181818181818181818180000000031
:105F500000000000000000000000C000C0000000C1
:105F600000000000C000C000C000C000C000C000B1
:105F7000C000C000C000C000C000C00000000000A1
:105F800000000000000000000000C000C000000091
:105F900000000000C000C000C000C000C000C00081
:105FA000C000C000C000C000C000C000C000C000F1
:105FB000C000F8007800000000000C000C000C008D
:105FC0000C000C000C0C0C060C038C01CC006C00BB
:105FD000FC009C018C030C030C060C0C0000000060
:105FE00000000000000000000000C000C000C00071
:105FF000C000C000C000C000C000C000C000C000A1
:10600000C000C000C000C000C000C0000000000010
:106010000000000000000000000000000000000080
:10602000000000007C3CFF7EC7E383C183C183C1C5
:1060300083C183C183C183C183C183C100000000C8
:106040000000000000000000000000000000000050
:10605000000000009807F80F381C181818181818B6
:106060001818181818181818181818180000000010
:106070000000000000000000000000000000000020
:1060800000000000C003F00F300C18181818181882
:10609000181818181818300CF00FC0030000000072
:1060A00000000000000000000000000000000000F0
:1060B00000000000D803F80F380C1818181818182A
:1060C000181818181818380CF80FD80318001800EA
:1060D0001800180018000000000000000000000078
:1060E00000000000C01BF01F301C181818181818EA
:1060F000181818181818301CF01FC01B00180018AA
:106100000018001800180000000000000000000047
:1061100000000000B007F0037000300030003000D5
:10612000300030003000300030003000000000004F
:10613000000000000000000000000000000000005F
:1061400000000000E003F003380E180C3800F003E4
:10615000C007000C180C380EF007E0030000000028
:106160000000000000000000000000008000C000EF
:10617000C000C000F007F007C000C000C000C000B1
:10618000C000C000C000C000C007800700000000C1
:1061900000000000000000000000000000000000FF
:1061A00000000000181818181818181818181818CF
:1061B000181818181818381CF01FE01900000000F3
:1061C00000000000000000000000000000000000CF
:1061D000000000000C18180C180C180C30063006C3
:1061E0003006600360036003C001C00100000000CE
:1061F000000000000000000000000000000000009F
:1062000000000000C141C141C36163636363636314
:106210003636363636361C1C1C1C1C1C0000000092
:10622000000000000000000000000000000000006E
:10623000000000001C38381C300C6006600360034E
:10624000600360036006300C381C1C38000000003E
:10625000000000000000000000000000000000003E
:10626000000000001830301830187018600C600CF6
:10627000E00CC006C006800380038003800180011B
:10628000C001F000700000000000000000000000ED
:1062900000000000FC1FFC1F000C00060003800132
:1062A000C000600030001800FC1FFC1F0000000050
:1062B0000000000000000000000000038001C0009A
:1062C000C000C000C000C000C0006000600030001E
:1062D00060004000C000C000C000C000C000C0009E
:1062E00080010003000000000000800180018001A7
:1062F0008001800180018001800180018001800196
:106300008001800180018001800180018001800185
:10631000800180018001000000006000C000C00119
:1063200080018001800180018001000300030006DC
:106330000003000180018001800180018001800153
:10634000C00060000000000000000000000000002D
:106350000000000000000000F010F81F080F00000F
:10636000000000000000000000000000000000002D
:106370000000000000000000010002000400060010
:1063800008000A000C0010002000400080000001FE
:1063900001010103070100000804020408010101D2
:1063A00000000000000000000102030406070809C5
:1063B0000000000001020304004040404040404013
:1063C00040404141414141404040404040404040C8
:1063D000404040404040404040050202020202026C
:1063E00002020202020202020220202020202020BB
:1063F00020202002020202020202909090909090CF
:10640000101010101010101010101010101010108C
:106410001010101002020202020288888888888800
:1064200008080808080808080808080808080808EC
:10643000080808080202020240000000B9630008D0
:10644000606400080000002068000000BC3F0008F5
:10645000C864000868000020F0070000CC3F000876
:106460000000FFFF00000000000000000800000026
:10647000000000000000000000000000000000001C
:10648000000000000000000000000000000000000C
:1064900000000000000000000000000000000000FC
:1064A0000000000000000C40000000000000004060
:1064B00000000000100000000100000000000000CB
:0864C0000024F40000000000BC
:04000005080001D915
:00000001FF
